{
  "_format": "hh-sol-artifact-1",
  "contractName": "MotherFactory",
  "sourceName": "contracts/src/MotherFactory.sol",
  "abi": [
    {
      "inputs": [],
      "name": "InvalidInitialization",
      "type": "error"
    },
    {
      "inputs": [],
      "name": "NotInitializing",
      "type": "error"
    },
    {
      "inputs": [
        {
          "internalType": "address",
          "name": "owner",
          "type": "address"
        }
      ],
      "name": "OwnableInvalidOwner",
      "type": "error"
    },
    {
      "inputs": [
        {
          "internalType": "address",
          "name": "account",
          "type": "address"
        }
      ],
      "name": "OwnableUnauthorizedAccount",
      "type": "error"
    },
    {
      "anonymous": false,
      "inputs": [
        {
          "indexed": true,
          "internalType": "address",
          "name": "oldBot",
          "type": "address"
        },
        {
          "indexed": true,
          "internalType": "address",
          "name": "newBot",
          "type": "address"
        },
        {
          "indexed": true,
          "internalType": "address",
          "name": "updatedBy",
          "type": "address"
        }
      ],
      "name": "AuthorizedBotUpdated",
      "type": "event"
    },
    {
      "anonymous": false,
      "inputs": [
        {
          "indexed": true,
          "internalType": "address",
          "name": "creator",
          "type": "address"
        },
        {
          "indexed": true,
          "internalType": "string",
          "name": "contractType",
          "type": "string"
        },
        {
          "indexed": true,
          "internalType": "address",
          "name": "contractAddress",
          "type": "address"
        },
        {
          "indexed": false,
          "internalType": "address",
          "name": "handler",
          "type": "address"
        },
        {
          "indexed": false,
          "internalType": "uint256",
          "name": "deploymentFee",
          "type": "uint256"
        }
      ],
      "name": "ContractDeployed",
      "type": "event"
    },
    {
      "anonymous": false,
      "inputs": [
        {
          "indexed": true,
          "internalType": "string",
          "name": "contractType",
          "type": "string"
        },
        {
          "indexed": true,
          "internalType": "address",
          "name": "handler",
          "type": "address"
        },
        {
          "indexed": true,
          "internalType": "address",
          "name": "registeredBy",
          "type": "address"
        }
      ],
      "name": "HandlerRegistered",
      "type": "event"
    },
    {
      "anonymous": false,
      "inputs": [
        {
          "indexed": true,
          "internalType": "string",
          "name": "contractType",
          "type": "string"
        },
        {
          "indexed": true,
          "internalType": "address",
          "name": "handler",
          "type": "address"
        },
        {
          "indexed": true,
          "internalType": "address",
          "name": "removedBy",
          "type": "address"
        }
      ],
      "name": "HandlerRemoved",
      "type": "event"
    },
    {
      "anonymous": false,
      "inputs": [
        {
          "indexed": false,
          "internalType": "uint64",
          "name": "version",
          "type": "uint64"
        }
      ],
      "name": "Initialized",
      "type": "event"
    },
    {
      "anonymous": false,
      "inputs": [
        {
          "indexed": true,
          "internalType": "address",
          "name": "previousOwner",
          "type": "address"
        },
        {
          "indexed": true,
          "internalType": "address",
          "name": "newOwner",
          "type": "address"
        }
      ],
      "name": "OwnershipTransferred",
      "type": "event"
    },
    {
      "inputs": [
        {
          "internalType": "uint256",
          "name": "",
          "type": "uint256"
        }
      ],
      "name": "allDeployedContracts",
      "outputs": [
        {
          "internalType": "address",
          "name": "",
          "type": "address"
        }
      ],
      "stateMutability": "view",
      "type": "function"
    },
    {
      "inputs": [],
      "name": "authorizedBot",
      "outputs": [
        {
          "internalType": "address",
          "name": "",
          "type": "address"
        }
      ],
      "stateMutability": "view",
      "type": "function"
    },
    {
      "inputs": [
        {
          "internalType": "uint256",
          "name": "",
          "type": "uint256"
        }
      ],
      "name": "contractTypes",
      "outputs": [
        {
          "internalType": "string",
          "name": "",
          "type": "string"
        }
      ],
      "stateMutability": "view",
      "type": "function"
    },
    {
      "inputs": [
        {
          "internalType": "string",
          "name": "contractType",
          "type": "string"
        },
        {
          "internalType": "bytes",
          "name": "params",
          "type": "bytes"
        }
      ],
      "name": "deployContract",
      "outputs": [
        {
          "internalType": "address",
          "name": "contractAddress",
          "type": "address"
        }
      ],
      "stateMutability": "payable",
      "type": "function"
    },
    {
      "inputs": [],
      "name": "getAllDeployedContracts",
      "outputs": [
        {
          "internalType": "address[]",
          "name": "contracts",
          "type": "address[]"
        }
      ],
      "stateMutability": "view",
      "type": "function"
    },
    {
      "inputs": [],
      "name": "getContractTypes",
      "outputs": [
        {
          "internalType": "string[]",
          "name": "types",
          "type": "string[]"
        }
      ],
      "stateMutability": "view",
      "type": "function"
    },
    {
      "inputs": [
        {
          "internalType": "address",
          "name": "creator",
          "type": "address"
        }
      ],
      "name": "getDeployedContracts",
      "outputs": [
        {
          "internalType": "address[]",
          "name": "contracts",
          "type": "address[]"
        }
      ],
      "stateMutability": "view",
      "type": "function"
    },
    {
      "inputs": [
        {
          "internalType": "string",
          "name": "contractType",
          "type": "string"
        },
        {
          "internalType": "bytes",
          "name": "params",
          "type": "bytes"
        }
      ],
      "name": "getDeploymentFee",
      "outputs": [
        {
          "internalType": "uint256",
          "name": "fee",
          "type": "uint256"
        }
      ],
      "stateMutability": "view",
      "type": "function"
    },
    {
      "inputs": [],
      "name": "getFactoryStats",
      "outputs": [
        {
          "internalType": "uint256",
          "name": "_totalDeployed",
          "type": "uint256"
        },
        {
          "internalType": "uint256",
          "name": "_totalHandlers",
          "type": "uint256"
        },
        {
          "internalType": "address",
          "name": "_currentOwner",
          "type": "address"
        }
      ],
      "stateMutability": "view",
      "type": "function"
    },
    {
      "inputs": [
        {
          "internalType": "string",
          "name": "contractType",
          "type": "string"
        }
      ],
      "name": "getHandler",
      "outputs": [
        {
          "internalType": "address",
          "name": "handlerAddress",
          "type": "address"
        }
      ],
      "stateMutability": "view",
      "type": "function"
    },
    {
      "inputs": [
        {
          "internalType": "string",
          "name": "contractType",
          "type": "string"
        }
      ],
      "name": "getHandlerInfo",
      "outputs": [
        {
          "internalType": "string",
          "name": "contractTypeReturned",
          "type": "string"
        },
        {
          "internalType": "string",
          "name": "version",
          "type": "string"
        },
        {
          "internalType": "string",
          "name": "description",
          "type": "string"
        }
      ],
      "stateMutability": "view",
      "type": "function"
    },
    {
      "inputs": [
        {
          "internalType": "string",
          "name": "",
          "type": "string"
        }
      ],
      "name": "handlers",
      "outputs": [
        {
          "internalType": "address",
          "name": "",
          "type": "address"
        }
      ],
      "stateMutability": "view",
      "type": "function"
    },
    {
      "inputs": [
        {
          "internalType": "address",
          "name": "_authorizedBot",
          "type": "address"
        }
      ],
      "name": "initialize",
      "outputs": [],
      "stateMutability": "nonpayable",
      "type": "function"
    },
    {
      "inputs": [
        {
          "internalType": "string",
          "name": "contractType",
          "type": "string"
        }
      ],
      "name": "isHandlerActive",
      "outputs": [
        {
          "internalType": "bool",
          "name": "isRegistered",
          "type": "bool"
        }
      ],
      "stateMutability": "view",
      "type": "function"
    },
    {
      "inputs": [
        {
          "internalType": "string",
          "name": "",
          "type": "string"
        }
      ],
      "name": "isHandlerRegistered",
      "outputs": [
        {
          "internalType": "bool",
          "name": "",
          "type": "bool"
        }
      ],
      "stateMutability": "view",
      "type": "function"
    },
    {
      "inputs": [],
      "name": "owner",
      "outputs": [
        {
          "internalType": "address",
          "name": "",
          "type": "address"
        }
      ],
      "stateMutability": "view",
      "type": "function"
    },
    {
      "inputs": [
        {
          "internalType": "string",
          "name": "contractType",
          "type": "string"
        },
        {
          "internalType": "address",
          "name": "handlerAddress",
          "type": "address"
        }
      ],
      "name": "registerHandler",
      "outputs": [],
      "stateMutability": "nonpayable",
      "type": "function"
    },
    {
      "inputs": [
        {
          "internalType": "string",
          "name": "contractType",
          "type": "string"
        }
      ],
      "name": "removeHandler",
      "outputs": [],
      "stateMutability": "nonpayable",
      "type": "function"
    },
    {
      "inputs": [],
      "name": "renounceOwnership",
      "outputs": [],
      "stateMutability": "nonpayable",
      "type": "function"
    },
    {
      "inputs": [
        {
          "internalType": "address",
          "name": "newBot",
          "type": "address"
        }
      ],
      "name": "setAuthorizedBot",
      "outputs": [],
      "stateMutability": "nonpayable",
      "type": "function"
    },
    {
      "inputs": [],
      "name": "totalDeployed",
      "outputs": [
        {
          "internalType": "uint256",
          "name": "",
          "type": "uint256"
        }
      ],
      "stateMutability": "view",
      "type": "function"
    },
    {
      "inputs": [
        {
          "internalType": "address",
          "name": "newOwner",
          "type": "address"
        }
      ],
      "name": "transferOwnership",
      "outputs": [],
      "stateMutability": "nonpayable",
      "type": "function"
    },
    {
      "inputs": [
        {
          "internalType": "address",
          "name": "",
          "type": "address"
        },
        {
          "internalType": "uint256",
          "name": "",
          "type": "uint256"
        }
      ],
      "name": "userDeployments",
      "outputs": [
        {
          "internalType": "address",
          "name": "",
          "type": "address"
        }
      ],
      "stateMutability": "view",
      "type": "function"
    }
  ],
  "bytecode": "0x608060405234801561001057600080fd5b50611e49806100206000396000f3fe6080604052600436106101405760003560e01c806370411d12116100b6578063c92264451161006f578063c9226445146103c2578063ce89581b146103fb578063de5948a71461041d578063e99548a51461043d578063f2fde38b1461046a578063f6a2444d1461048a57600080fd5b806370411d1214610309578063715018a6146103295780638da5cb5b1461033e578063aa6d0a9814610353578063c0c83e4e14610373578063c4d66de8146103a257600080fd5b8063446a75c511610108578063446a75c5146102395780634ec59e401461027457806352bcaa131461029457806357ae71d4146102b45780636c9364b2146102c75780636f629ef1146102e957600080fd5b80630cfb14b01461014557806315e417111461016e57806316e3878314610190578063199d752e146101c857806341aeb15b14610209575b600080fd5b34801561015157600080fd5b5061015b60055481565b6040519081526020015b60405180910390f35b34801561017a57600080fd5b5061018e610189366004611660565b6104aa565b005b34801561019c57600080fd5b506101b06101ab3660046116b2565b6106e0565b6040516001600160a01b039091168152602001610165565b3480156101d457600080fd5b506101b06101e3366004611660565b80516020818301810180516000825292820191909301209152546001600160a01b031681565b34801561021557600080fd5b50610229610224366004611660565b610718565b6040519015158152602001610165565b34801561024557600080fd5b50610229610254366004611660565b805160208183018101805160028252928201919093012091525460ff1681565b34801561028057600080fd5b506101b061028f366004611660565b610743565b3480156102a057600080fd5b506006546101b0906001600160a01b031681565b6101b06102c23660046116de565b610773565b3480156102d357600080fd5b506102dc610a9e565b6040516101659190611756565b3480156102f557600080fd5b5061018e6103043660046117a3565b610b00565b34801561031557600080fd5b506102dc6103243660046117a3565b610b81565b34801561033557600080fd5b5061018e610bf7565b34801561034a57600080fd5b506101b0610c0b565b34801561035f57600080fd5b506101b061036e3660046117c0565b610c39565b34801561037f57600080fd5b5061039361038e366004611660565b610c63565b60405161016593929190611829565b3480156103ae57600080fd5b5061018e6103bd3660046117a3565b610d5c565b3480156103ce57600080fd5b506103d7610e99565b6040805193845260208401929092526001600160a01b031690820152606001610165565b34801561040757600080fd5b50610410610eba565b6040516101659190611862565b34801561042957600080fd5b5061018e6104383660046118c6565b610f93565b34801561044957600080fd5b5061045d6104583660046117c0565b6111af565b6040516101659190611918565b34801561047657600080fd5b5061018e6104853660046117a3565b61125b565b34801561049657600080fd5b5061015b6104a53660046116de565b6112f0565b6104b26113dd565b8060006001600160a01b03166000826040516104ce919061192b565b908152604051908190036020019020546001600160a01b03160361050d5760405162461bcd60e51b815260040161050490611947565b60405180910390fd5b6000808360405161051e919061192b565b908152604051908190036020018120546001600160a01b03169150600090819061054990869061192b565b908152602001604051809103902060006101000a8154816001600160a01b0302191690836001600160a01b03160217905550600060028460405161058d919061192b565b908152604051908190036020019020805491151560ff1990921691909117905560005b600154811015610688578380519060200120600182815481106105d5576105d56119a4565b906000526020600020016040516105ec91906119f4565b6040518091039020036106805760018054610608908290611a80565b81548110610618576106186119a4565b9060005260206000200160018281548110610635576106356119a4565b90600052602060002001908161064b9190611ae0565b50600180548061065d5761065d611bc1565b600190038181906000526020600020016000610679919061153e565b9055610688565b6001016105b0565b50336001600160a01b0316816001600160a01b0316846040516106ab919061192b565b604051908190038120907ff9e3c631ccdbc5ae5444a19e7ffe948b233786a57e6f590ffb87c201838fac4390600090a4505050565b600360205281600052604060002081815481106106fc57600080fd5b6000918252602090912001546001600160a01b03169150829050565b600060028260405161072a919061192b565b9081526040519081900360200190205460ff1692915050565b60008082604051610754919061192b565b908152604051908190036020019020546001600160a01b031692915050565b60008260006001600160a01b0316600082604051610791919061192b565b908152604051908190036020019020546001600160a01b0316036107c75760405162461bcd60e51b815260040161050490611947565b600080856040516107d8919061192b565b9081526040519081900360200181205463694c6df160e11b82526001600160a01b031691508190600090829063d298dbe290610818908990600401611918565b602060405180830381865afa158015610835573d6000803e3d6000fd5b505050506040513d601f19601f820116820180604052508101906108599190611bd7565b9050803410156108ca5760405162461bcd60e51b815260206004820152603660248201527f4d6f74686572466163746f72793a20496e73756666696369656e74207061796d604482015275656e7420666f72206465706c6f796d656e742066656560501b6064820152608401610504565b604051632673ce9f60e01b81526001600160a01b03831690632673ce9f9034906108fa9033908b90600401611bf0565b60206040518083038185885af1158015610918573d6000803e3d6000fd5b50505050506040513d601f19601f8201168201806040525081019061093d9190611c14565b94506001600160a01b0385166109a75760405162461bcd60e51b815260206004820152602960248201527f4d6f74686572466163746f72793a20436f6e7472616374206465706c6f796d656044820152681b9d0819985a5b195960ba1b6064820152608401610504565b336000908152600360209081526040822080546001818101835591845291832090910180546001600160a01b0389166001600160a01b0319918216811790925560048054938401815584527f8a35acfbc15ff81a39ae7d344fd709f28e8600b4aa8c65c6b64bfe7fe36bd19b90920180549092161790556005805491610a2c83611c31565b9190505550846001600160a01b031687604051610a49919061192b565b604080519182900382206001600160a01b0387168352602083018590529133917f222c1245892029cf188811ab1ff76e0cc8e57354b4e77c3e4980ba67a072ec1b910160405180910390a45050505092915050565b60606004805480602002602001604051908101604052809291908181526020018280548015610af657602002820191906000526020600020905b81546001600160a01b03168152600190910190602001808311610ad8575b5050505050905090565b610b086113dd565b6001600160a01b038116610b2e5760405162461bcd60e51b815260040161050490611c4a565b600680546001600160a01b038381166001600160a01b031983168117909355604051911691339183907fc178fc259fbcb0b6fcd62e7265f31803db1677dadecebff1d2fdd3104d79303890600090a45050565b6001600160a01b038116600090815260036020908152604091829020805483518184028101840190945280845260609392830182828015610beb57602002820191906000526020600020905b81546001600160a01b03168152600190910190602001808311610bcd575b50505050509050919050565b610bff6113dd565b610c09600061140f565b565b7f9016d09d72d40fdae2fd8ceac6b6234c7706214fd39c1cd1e609a0528c199300546001600160a01b031690565b60048181548110610c4957600080fd5b6000918252602090912001546001600160a01b0316905081565b60608060608360006001600160a01b0316600082604051610c84919061192b565b908152604051908190036020019020546001600160a01b031603610cba5760405162461bcd60e51b815260040161050490611947565b60008086604051610ccb919061192b565b9081526040805191829003602001822054631ffc224d60e21b835290516001600160a01b03909116925082918291637ff08934916004808201926000929091908290030181865afa158015610d24573d6000803e3d6000fd5b505050506040513d6000823e601f3d908101601f19168201604052610d4c9190810190611cd1565b9550955095505050509193909250565b6000610d66611480565b805490915060ff600160401b820416159067ffffffffffffffff16600081158015610d8e5750825b905060008267ffffffffffffffff166001148015610dab5750303b155b905081158015610db9575080155b15610dd75760405163f92ee8a960e01b815260040160405180910390fd5b845467ffffffffffffffff191660011785558315610e0157845460ff60401b1916600160401b1785555b610e0a336114ab565b6001600160a01b038616610e305760405162461bcd60e51b815260040161050490611c4a565b600680546001600160a01b0319166001600160a01b0388161790558315610e9157845460ff60401b19168555604051600181527fc7f505b2f371ae2175ee4913f4499e1f2633a7b5936321eed1cdaeb6115181d29060200160405180910390a15b505050505050565b6000806000600554600180549050610eaf610c0b565b925092509250909192565b60606001805480602002602001604051908101604052809291908181526020016000905b82821015610f8a578382906000526020600020018054610efd906119ba565b80601f0160208091040260200160405190810160405280929190818152602001828054610f29906119ba565b8015610f765780601f10610f4b57610100808354040283529160200191610f76565b820191906000526020600020905b815481529060010190602001808311610f5957829003601f168201915b505050505081526020019060010190610ede565b50505050905090565b610f9b6113dd565b6001600160a01b0381166110005760405162461bcd60e51b815260206004820152602660248201527f4d6f74686572466163746f72793a20496e76616c69642068616e646c6572206160448201526564647265737360d01b6064820152608401610504565b60008251116110665760405162461bcd60e51b815260206004820152602c60248201527f4d6f74686572466163746f72793a20436f6e747261637420747970652063616e60448201526b6e6f7420626520656d70747960a01b6064820152608401610504565b6000806001600160a01b0316600084604051611082919061192b565b908152604051908190036020018120546001600160a01b031691909114915082906000906110b190869061192b565b908152602001604051809103902060006101000a8154816001600160a01b0302191690836001600160a01b0316021790555060016002846040516110f5919061192b565b908152604051908190036020019020805491151560ff199092169190911790558015611158576001805480820182556000919091527fb10e2d527612073b26eecdfd717e6a320cf44b4afac2b0732d9fcbe2b7fa0cf6016111568482611d59565b505b336001600160a01b0316826001600160a01b03168460405161117a919061192b565b604051908190038120907fc25822579f88aa4ad869fbf884bc69950c0b9ad95bbcf5841d6e1adb77e3281090600090a4505050565b600181815481106111bf57600080fd5b9060005260206000200160009150905080546111da906119ba565b80601f0160208091040260200160405190810160405280929190818152602001828054611206906119ba565b80156112535780601f1061122857610100808354040283529160200191611253565b820191906000526020600020905b81548152906001019060200180831161123657829003601f168201915b505050505081565b6112636113dd565b61126b610c0b565b6001600160a01b0316816001600160a01b0316036112e45760405162461bcd60e51b815260206004820152603060248201527f4d6f74686572466163746f72793a204e6577206f776e65722063616e6e6f742060448201526f31329031bab93932b73a1037bbb732b960811b6064820152608401610504565b6112ed816114bc565b50565b60008260006001600160a01b031660008260405161130e919061192b565b908152604051908190036020019020546001600160a01b0316036113445760405162461bcd60e51b815260040161050490611947565b60008085604051611355919061192b565b9081526040519081900360200181205463694c6df160e11b82526001600160a01b031691508190819063d298dbe290611392908890600401611918565b602060405180830381865afa1580156113af573d6000803e3d6000fd5b505050506040513d601f19601f820116820180604052508101906113d39190611bd7565b9695505050505050565b336113e6610c0b565b6001600160a01b031614610c095760405163118cdaa760e01b8152336004820152602401610504565b7f9016d09d72d40fdae2fd8ceac6b6234c7706214fd39c1cd1e609a0528c19930080546001600160a01b031981166001600160a01b03848116918217845560405192169182907f8be0079c531659141344cd1fd0a4f28419497f9722a3daafe3b4186f6b6457e090600090a3505050565b6000807ff0c57e16840df040f15088dc2f81fe391c3923bec73e23a9662efc9c229c6a005b92915050565b6114b36114f7565b6112ed8161151c565b6114c46113dd565b6001600160a01b0381166114ee57604051631e4fbdf760e01b815260006004820152602401610504565b6112ed8161140f565b6114ff611524565b610c0957604051631afcd79f60e31b815260040160405180910390fd5b6114c46114f7565b600061152e611480565b54600160401b900460ff16919050565b50805461154a906119ba565b6000825580601f1061155a575050565b601f0160209004906000526020600020908101906112ed91905b808211156115885760008155600101611574565b5090565b634e487b7160e01b600052604160045260246000fd5b604051601f8201601f1916810167ffffffffffffffff811182821017156115cb576115cb61158c565b604052919050565b600067ffffffffffffffff8211156115ed576115ed61158c565b50601f01601f191660200190565b600061160e611609846115d3565b6115a2565b905082815283838301111561162257600080fd5b828260208301376000602084830101529392505050565b600082601f83011261164a57600080fd5b611659838335602085016115fb565b9392505050565b60006020828403121561167257600080fd5b813567ffffffffffffffff81111561168957600080fd5b61169584828501611639565b949350505050565b6001600160a01b03811681146112ed57600080fd5b600080604083850312156116c557600080fd5b82356116d08161169d565b946020939093013593505050565b600080604083850312156116f157600080fd5b823567ffffffffffffffff8082111561170957600080fd5b61171586838701611639565b9350602085013591508082111561172b57600080fd5b508301601f8101851361173d57600080fd5b61174c858235602084016115fb565b9150509250929050565b6020808252825182820181905260009190848201906040850190845b818110156117975783516001600160a01b031683529284019291840191600101611772565b50909695505050505050565b6000602082840312156117b557600080fd5b81356116598161169d565b6000602082840312156117d257600080fd5b5035919050565b60005b838110156117f45781810151838201526020016117dc565b50506000910152565b600081518084526118158160208601602086016117d9565b601f01601f19169290920160200192915050565b60608152600061183c60608301866117fd565b828103602084015261184e81866117fd565b905082810360408401526113d381856117fd565b600060208083016020845280855180835260408601915060408160051b87010192506020870160005b828110156118b957603f198886030184526118a78583516117fd565b9450928501929085019060010161188b565b5092979650505050505050565b600080604083850312156118d957600080fd5b823567ffffffffffffffff8111156118f057600080fd5b6118fc85828601611639565b925050602083013561190d8161169d565b809150509250929050565b60208152600061165960208301846117fd565b6000825161193d8184602087016117d9565b9190910192915050565b60208082526037908201527f4d6f74686572466163746f72793a2048616e646c6572206e6f7420726567697360408201527f746572656420666f7220636f6e74726163742074797065000000000000000000606082015260800190565b634e487b7160e01b600052603260045260246000fd5b600181811c908216806119ce57607f821691505b6020821081036119ee57634e487b7160e01b600052602260045260246000fd5b50919050565b6000808354611a02816119ba565b60018281168015611a1a5760018114611a2f57611a5e565b60ff1984168752821515830287019450611a5e565b8760005260208060002060005b85811015611a555781548a820152908401908201611a3c565b50505082870194505b50929695505050505050565b634e487b7160e01b600052601160045260246000fd5b818103818111156114a5576114a5611a6a565b601f821115611adb576000816000526020600020601f850160051c81016020861015611abc5750805b601f850160051c820191505b81811015610e9157828155600101611ac8565b505050565b818103611aeb575050565b611af582546119ba565b67ffffffffffffffff811115611b0d57611b0d61158c565b611b2181611b1b84546119ba565b84611a93565b6000601f821160018114611b555760008315611b3d5750848201545b600019600385901b1c1916600184901b178455611bba565b600085815260209020601f19841690600086815260209020845b83811015611b8f5782860154825560019586019590910190602001611b6f565b5085831015611bad5781850154600019600388901b60f8161c191681555b50505060018360011b0184555b5050505050565b634e487b7160e01b600052603160045260246000fd5b600060208284031215611be957600080fd5b5051919050565b6001600160a01b0383168152604060208201819052600090611695908301846117fd565b600060208284031215611c2657600080fd5b81516116598161169d565b600060018201611c4357611c43611a6a565b5060010190565b60208082526022908201527f4d6f74686572466163746f72793a20496e76616c696420626f74206164647265604082015261737360f01b606082015260800190565b600082601f830112611c9d57600080fd5b8151611cab611609826115d3565b818152846020838601011115611cc057600080fd5b6116958260208301602087016117d9565b600080600060608486031215611ce657600080fd5b835167ffffffffffffffff80821115611cfe57600080fd5b611d0a87838801611c8c565b94506020860151915080821115611d2057600080fd5b611d2c87838801611c8c565b93506040860151915080821115611d4257600080fd5b50611d4f86828701611c8c565b9150509250925092565b815167ffffffffffffffff811115611d7357611d7361158c565b611d8181611b1b84546119ba565b602080601f831160018114611db65760008415611d9e5750858301515b600019600386901b1c1916600185901b178555610e91565b600085815260208120601f198616915b82811015611de557888601518255948401946001909101908401611dc6565b5085821015611e035787850151600019600388901b60f8161c191681555b5050505050600190811b0190555056fea26469706673582212208b84a75f308a82a8e86e65bee9b70851ada8d17d9e29bb0d019f2fa1b349db0d64736f6c63430008160033",
  "linkReferences": {},
  "deployedLinkReferences": {}
}