{"contracts/src/QuizHandler.sol":{"QuizHandler":{"abi":[{"inputs":[{"internalType":"address","name":"_authorizedBot","type":"address"}],"stateMutability":"nonpayable","type":"constructor"},{"anonymous":false,"inputs":[{"indexed":true,"internalType":"address","name":"creator","type":"address"},{"indexed":true,"internalType":"address","name":"quizAddress","type":"address"},{"indexed":false,"internalType":"uint256","name":"correctReward","type":"uint256"},{"indexed":false,"internalType":"uint256","name":"incorrectReward","type":"uint256"},{"indexed":false,"internalType":"uint256","name":"fundingAmount","type":"uint256"},{"indexed":false,"internalType":"uint256","name":"deploymentFee","type":"uint256"}],"name":"QuizDeployed","type":"event"},{"inputs":[],"name":"DEPLOYMENT_FEE","outputs":[{"internalType":"uint256","name":"","type":"uint256"}],"stateMutability":"view","type":"function"},{"inputs":[],"name":"VERSION","outputs":[{"internalType":"string","name":"","type":"string"}],"stateMutability":"view","type":"function"},{"inputs":[],"name":"authorizedBot","outputs":[{"internalType":"address","name":"","type":"address"}],"stateMutability":"view","type":"function"},{"inputs":[{"internalType":"bytes","name":"params","type":"bytes"}],"name":"decodeDeploymentParams","outputs":[{"internalType":"uint256","name":"correctReward","type":"uint256"},{"internalType":"uint256","name":"incorrectReward","type":"uint256"}],"stateMutability":"pure","type":"function"},{"inputs":[{"internalType":"address","name":"creator","type":"address"},{"internalType":"bytes","name":"params","type":"bytes"}],"name":"deployContract","outputs":[{"internalType":"address","name":"contractAddress","type":"address"}],"stateMutability":"payable","type":"function"},{"inputs":[{"internalType":"uint256","name":"correctReward","type":"uint256"},{"internalType":"uint256","name":"incorrectReward","type":"uint256"}],"name":"encodeDeploymentParams","outputs":[{"internalType":"bytes","name":"params","type":"bytes"}],"stateMutability":"pure","type":"function"},{"inputs":[],"name":"getAccumulatedFees","outputs":[{"internalType":"uint256","name":"balance","type":"uint256"}],"stateMutability":"view","type":"function"},{"inputs":[],"name":"getAuthorizedBot","outputs":[{"internalType":"address","name":"bot","type":"address"}],"stateMutability":"view","type":"function"},{"inputs":[{"internalType":"bytes","name":"params","type":"bytes"}],"name":"getDeploymentFee","outputs":[{"internalType":"uint256","name":"fee","type":"uint256"}],"stateMutability":"pure","type":"function"},{"inputs":[],"name":"getHandlerInfo","outputs":[{"internalType":"string","name":"contractType","type":"string"},{"internalType":"string","name":"version","type":"string"},{"internalType":"string","name":"description","type":"string"}],"stateMutability":"pure","type":"function"},{"inputs":[],"name":"withdrawFees","outputs":[],"stateMutability":"nonpayable","type":"function"}],"evm":{"bytecode":{"linkReferences":{},"object":"60a060405234801561001057600080fd5b50604051611d16380380611d1683398101604081905261002f9161009a565b6001600160a01b0381166100895760405162461bcd60e51b815260206004820181905260248201527f5175697a48616e646c65723a20496e76616c696420626f742061646472657373604482015260640160405180910390fd5b6001600160a01b03166080526100ca565b6000602082840312156100ac57600080fd5b81516001600160a01b03811681146100c357600080fd5b9392505050565b608051611c1d6100f96000396000818160be0152818161017b0152818161043c01526105270152611c1d6000f3fe608060405260043610620000a95760003560e01c80635df45a37116200006c5780635df45a37146200019d5780637ff0893414620001bc578063907fd3c614620001e5578063a8f322511462000219578063d298dbe21462000236578063ffa1ad74146200026357600080fd5b8063080885d614620000ae5780631aa7ec3414620000fb5780632673ce9f1462000136578063476343ee146200014d57806352bcaa131462000167575b600080fd5b348015620000bb57600080fd5b507f00000000000000000000000000000000000000000000000000000000000000005b6040516001600160a01b0390911681526020015b60405180910390f35b3480156200010857600080fd5b50620001206200011a36600462000794565b62000296565b60408051928352602083019190915201620000f2565b620000de62000147366004620007da565b620002b3565b3480156200015a57600080fd5b50620001656200051c565b005b3480156200017457600080fd5b50620000de7f000000000000000000000000000000000000000000000000000000000000000081565b348015620001aa57600080fd5b50475b604051908152602001620000f2565b348015620001c957600080fd5b50620001d4620006ac565b604051620000f29392919062000888565b348015620001f257600080fd5b506200020a62000204366004620008d1565b62000718565b604051620000f29190620008f4565b3480156200022657600080fd5b50620001ad66038d7ea4c6800081565b3480156200024357600080fd5b50620001ad6200025536600462000794565b66038d7ea4c6800092915050565b3480156200027057600080fd5b506200020a604051806040016040528060058152602001640312e302e360dc1b81525081565b600080620002a783850185620008d1565b915091505b9250929050565b60008080620002c584860186620008d1565b915091506000821180620002d95750600081115b6200033e5760405162461bcd60e51b815260206004820152602a60248201527f5175697a48616e646c65723a204d7573742070726f76696465206e6f6e2d7a65604482015269726f207265776172647360b01b60648201526084015b60405180910390fd5b66038d7ea4c680003411620003be576040805162461bcd60e51b81526020600482015260248101919091527f5175697a48616e646c65723a20496e73756666696369656e74207061796d656e60448201527f7420666f72206465706c6f796d656e742066656520616e642066756e64696e67606482015260840162000335565b6000620003d366038d7ea4c680003462000910565b905060008111620004365760405162461bcd60e51b815260206004820152602660248201527f5175697a48616e646c65723a204d7573742070726f76696465207175697a2066604482015265756e64696e6760d01b606482015260840162000335565b600081887f000000000000000000000000000000000000000000000000000000000000000086866040516200046b9062000741565b6001600160a01b039485168152939092166020840152604083015260608201526080016040518091039082f0905080158015620004ac573d6000803e3d6000fd5b50604080518681526020810186905290810184905266038d7ea4c6800060608201529095508591506001600160a01b0380831691908a16907f3f26db352b9a3383677028a245639b0ff66037db60e00c22e867bbe449d527ca9060800160405180910390a3505050509392505050565b336001600160a01b037f00000000000000000000000000000000000000000000000000000000000000001614620005b15760405162461bcd60e51b815260206004820152603260248201527f5175697a48616e646c65723a204f6e6c7920617574686f72697a656420626f746044820152712063616e207769746864726177206665657360701b606482015260840162000335565b4780620006015760405162461bcd60e51b815260206004820181905260248201527f5175697a48616e646c65723a204e6f206665657320746f207769746864726177604482015260640162000335565b604051600090339083908381818185875af1925050503d806000811462000645576040519150601f19603f3d011682016040523d82523d6000602084013e6200064a565b606091505b5050905080620006a85760405162461bcd60e51b815260206004820152602260248201527f5175697a48616e646c65723a20466565207769746864726177616c206661696c604482015261195960f21b606482015260840162000335565b5050565b6060806060604051806040016040528060058152602001640312e302e360dc1b8152506040518060400160405280600a8152602001695175697a457363726f7760b01b8152509060405180608001604052806058815260200162001b9060589139925092509250909192565b604080516020810184905280820183905281518082038301815260609091019091525b92915050565b61125d806200093383390190565b60008083601f8401126200076257600080fd5b50813567ffffffffffffffff8111156200077b57600080fd5b602083019150836020828501011115620002ac57600080fd5b60008060208385031215620007a857600080fd5b823567ffffffffffffffff811115620007c057600080fd5b620007ce858286016200074f565b90969095509350505050565b600080600060408486031215620007f057600080fd5b83356001600160a01b03811681146200080857600080fd5b9250602084013567ffffffffffffffff8111156200082557600080fd5b62000833868287016200074f565b9497909650939450505050565b6000815180845260005b8181101562000868576020818501810151868301820152016200084a565b506000602082860101526020601f19601f83011685010191505092915050565b6060815260006200089d606083018662000840565b8281036020840152620008b1818662000840565b90508281036040840152620008c7818562000840565b9695505050505050565b60008060408385031215620008e557600080fd5b50508035926020909101359150565b60208152600062000909602083018462000840565b9392505050565b818103818111156200073b57634e487b7160e01b600052601160045260246000fdfe6101406040526040516200125d3803806200125d833981016040819052620000279162000241565b6001600160a01b0384166200008f5760405162461bcd60e51b815260206004820152602360248201527f5175697a457363726f773a20496e76616c69642063726561746f72206164647260448201526265737360e81b60648201526084015b60405180910390fd5b6001600160a01b038316620000e75760405162461bcd60e51b815260206004820152601f60248201527f5175697a457363726f773a20496e76616c696420626f74206164647265737300604482015260640162000086565b60003411620001395760405162461bcd60e51b815260206004820181905260248201527f5175697a457363726f773a204d7573742070726f766964652066756e64696e67604482015260640162000086565b6000821180620001495750600081115b620001a95760405162461bcd60e51b815260206004820152602960248201527f5175697a457363726f773a204d7573742070726f76696465206e6f6e2d7a65726044820152686f207265776172647360b81b606482015260840162000086565b6001600160a01b03848116608081905290841660a08190524260c0523460e0819052610100859052610120849052604080519182526020820186905281018490529091907f7827af77e7b6672abd014a70dd2023f4fe7c0e5f4c029a83295cbf193a8f8ea09060600160405180910390a35050505062000289565b80516001600160a01b03811681146200023c57600080fd5b919050565b600080600080608085870312156200025857600080fd5b620002638562000224565b9350620002736020860162000224565b6040860151606090960151949790965092505050565b60805160a05160c05160e0516101005161012051610f3e6200031f60003960008181610233015261070a01526000818161025a01526107340152600061017a0152600081816102f10152818161053d015281816109ca01528181610ca10152610d760152600081816101e6015281816104540152610a0601526000818161013601528181610b040152610bdb0152610f3e6000f3fe608060405234801561001057600080fd5b506004361061012c5760003560e01c80636381eea6116100ad578063d235659311610071578063d2356593146102e3578063d8270dce146102ec578063dc1892e614610313578063e41c3ce41461036d578063efb98bcf146103b557600080fd5b80636381eea61461022e5780637b42720414610255578063a26dbf261461027c578063a4fd6f5614610285578063c7f43d58146102a257600080fd5b80632820aece116100f45780632820aece146101ce57806352bcaa13146101e157806355acbb781461020857806355e08c2b146102115780635b0700a81461022657600080fd5b806302d05d3f1461013157806304a79c971461017557806312065fe0146101aa5780631357e1dc146101b0578063195ec9ee146101b9575b600080fd5b6101587f000000000000000000000000000000000000000000000000000000000000000081565b6040516001600160a01b0390911681526020015b60405180910390f35b61019c7f000000000000000000000000000000000000000000000000000000000000000081565b60405190815260200161016c565b4761019c565b61019c60005481565b6101c16103bd565b60405161016c9190610dbf565b6101586101dc366004610e0c565b61041f565b6101587f000000000000000000000000000000000000000000000000000000000000000081565b61019c60045481565b61022461021f366004610e41565b610449565b005b6102246109c5565b61019c7f000000000000000000000000000000000000000000000000000000000000000081565b61019c7f000000000000000000000000000000000000000000000000000000000000000081565b61019c60025481565b6001546102929060ff1681565b604051901515815260200161016c565b6102aa610c87565b6040805197885260208801969096529486019390935260608501919091526080840152151560a0830152151560c082015260e00161016c565b61019c60035481565b61019c7f000000000000000000000000000000000000000000000000000000000000000081565b61034b610321366004610e74565b60066020526000908152604090208054600182015460028301546003909301549192909160ff1684565b604080519485526020850193909352918301521515606082015260800161016c565b61038061037b366004610e74565b610cee565b60405161016c919081518152602080830151908201526040808301519082015260609182015115159181019190915260800190565b61019c610d6e565b6060600580548060200260200160405190810160405280929190818152602001828054801561041557602002820191906000526020600020905b81546001600160a01b031681526001909101906020018083116103f7575b5050505050905090565b6005818154811061042f57600080fd5b6000918252602090912001546001600160a01b0316905081565b336001600160a01b037f000000000000000000000000000000000000000000000000000000000000000016146104e55760405162461bcd60e51b815260206004820152603660248201527f5175697a457363726f773a204f6e6c7920617574686f72697a656420626f742060448201527531b0b71031b0b636103a3434b990333ab731ba34b7b760511b60648201526084015b60405180910390fd5b60015460ff16156105385760405162461bcd60e51b815260206004820152601a60248201527f5175697a457363726f773a205175697a2068617320656e64656400000000000060448201526064016104dc565b6105657f000000000000000000000000000000000000000000000000000000000000000062015180610eac565b42106105b35760405162461bcd60e51b815260206004820152601c60248201527f5175697a457363726f773a205175697a2068617320657870697265640000000060448201526064016104dc565b6001600160a01b0383166106195760405162461bcd60e51b815260206004820152602760248201527f5175697a457363726f773a20496e76616c6964207061727469636970616e74206044820152666164647265737360c81b60648201526084016104dc565b6001600160a01b03831660009081526006602052604090206003015460ff16156106965760405162461bcd60e51b815260206004820152602860248201527f5175697a457363726f773a205061727469636970616e7420616c7265616479206044820152671c9958dbdc99195960c21b60648201526084016104dc565b60008211806106a55750600081115b6107035760405162461bcd60e51b815260206004820152602960248201527f5175697a457363726f773a204d7573742068617665206174206c65617374206f60448201526837329030b739bbb2b960b91b60648201526084016104dc565b600061072f7f000000000000000000000000000000000000000000000000000000000000000083610ec5565b6107597f000000000000000000000000000000000000000000000000000000000000000085610ec5565b6107639190610eac565b9050478111156107c75760405162461bcd60e51b815260206004820152602960248201527f5175697a457363726f773a20496e73756666696369656e742066756e647320666044820152681bdc881c185e5bdd5d60ba1b60648201526084016104dc565b6040805160808101825284815260208082018581528284018581526001606085018181526001600160a01b038b166000818152600690965296852095518655925185820155905160028086019190915591516003909401805460ff19169415159490941790935560058054938401815582527f036b6384b5eca791c62761152d0c79bb0604c104a5fb6f4eb0703f3154bb3db090920180546001600160a01b03191690931790925580549161087b83610edc565b919050555082600360008282546108929190610eac565b9250508190555081600460008282546108ab9190610eac565b92505081905550806000808282546108c39190610eac565b90915550508015610973576000846001600160a01b03168260405160006040518083038185875af1925050503d806000811461091b576040519150601f19603f3d011682016040523d82523d6000602084013e610920565b606091505b50509050806109715760405162461bcd60e51b815260206004820152601a60248201527f5175697a457363726f773a205061796d656e74206661696c656400000000000060448201526064016104dc565b505b60408051848152602081018490529081018290526001600160a01b038516907f505ea5f95ab2f1563b21d724db1b6c59f3e8b8ca0169dd0d2dcd6c2b45371ecf9060600160405180910390a250505050565b6109f27f000000000000000000000000000000000000000000000000000000000000000062015180610eac565b42101580610a285750336001600160a01b037f000000000000000000000000000000000000000000000000000000000000000016145b610a9a5760405162461bcd60e51b815260206004820152603a60248201527f5175697a457363726f773a205175697a206e6f74206578706972656420616e6460448201527f2063616c6c6572206e6f7420617574686f72697a656420626f7400000000000060648201526084016104dc565b60015460ff1615610aed5760405162461bcd60e51b815260206004820152601e60248201527f5175697a457363726f773a205175697a20616c726561647920656e646564000060448201526064016104dc565b6001805460ff191681179055478015610c3e5760007f00000000000000000000000000000000000000000000000000000000000000006001600160a01b03168260405160006040518083038185875af1925050503d8060008114610b6d576040519150601f19603f3d011682016040523d82523d6000602084013e610b72565b606091505b5050905080610bd95760405162461bcd60e51b815260206004820152602d60248201527f5175697a457363726f773a204661696c656420746f2072657475726e2066756e60448201526c3239903a379031b932b0ba37b960991b60648201526084016104dc565b7f00000000000000000000000000000000000000000000000000000000000000006001600160a01b03167fa040ca073376d39884e5322e13f5e38fe9db9b46f46d474e7cfcfbdf2d617a9a83604051610c3491815260200190565b60405180910390a2505b7fa079fdba1bc1af068f704947986666feb435d952a5db81d4109e9e7d070efbdb600254600054604051610c7c929190918252602082015260400190565b60405180910390a150565b6000806000806000806000600254600354600454600054477f000000000000000000000000000000000000000000000000000000000000000062015180610cce9190610eac565b600154959d949c50929a509098509650421015945060ff90911692509050565b610d1b60405180608001604052806000815260200160008152602001600081526020016000151581525090565b506001600160a01b031660009081526006602090815260409182902082516080810184528154815260018201549281019290925260028101549282019290925260039091015460ff161515606082015290565b600080610d9e7f000000000000000000000000000000000000000000000000000000000000000062015180610eac565b9050804210610daf57600091505090565b610db94282610ef5565b91505090565b6020808252825182820181905260009190848201906040850190845b81811015610e005783516001600160a01b031683529284019291840191600101610ddb565b50909695505050505050565b600060208284031215610e1e57600080fd5b5035919050565b80356001600160a01b0381168114610e3c57600080fd5b919050565b600080600060608486031215610e5657600080fd5b610e5f84610e25565b95602085013595506040909401359392505050565b600060208284031215610e8657600080fd5b610e8f82610e25565b9392505050565b634e487b7160e01b600052601160045260246000fd5b80820180821115610ebf57610ebf610e96565b92915050565b8082028115828204841417610ebf57610ebf610e96565b600060018201610eee57610eee610e96565b5060010190565b81810381811115610ebf57610ebf610e9656fea26469706673582212205c75dff544b30baa8ba9a980156c21d90bffa1921b58f8311e6330f3888b4be464736f6c634300081600334465706c6f7973205175697a457363726f7720636f6e74726163747320666f7220446973636f7264207175697a2067616d6573207769746820626f742d636f6e74726f6c6c656420726573756c74207265636f7264696e67a26469706673582212200f60e227291ec57a9b8c83c7cc9f130f434c8e5a7aef0ffa9a959c50899cc04664736f6c63430008160033","opcodes":"PUSH1 0xA0 PUSH1 0x40 MSTORE CALLVALUE DUP1 ISZERO PUSH2 0x10 JUMPI PUSH1 0x0 DUP1 REVERT JUMPDEST POP PUSH1 0x40 MLOAD PUSH2 0x1D16 CODESIZE SUB DUP1 PUSH2 0x1D16 DUP4 CODECOPY DUP2 ADD PUSH1 0x40 DUP2 SWAP1 MSTORE PUSH2 0x2F SWAP2 PUSH2 0x9A JUMP JUMPDEST PUSH1 0x1 PUSH1 0x1 PUSH1 0xA0 SHL SUB DUP2 AND PUSH2 0x89 JUMPI PUSH1 0x40 MLOAD PUSH3 0x461BCD PUSH1 0xE5 SHL DUP2 MSTORE PUSH1 0x20 PUSH1 0x4 DUP3 ADD DUP2 SWAP1 MSTORE PUSH1 0x24 DUP3 ADD MSTORE PUSH32 0x5175697A48616E646C65723A20496E76616C696420626F742061646472657373 PUSH1 0x44 DUP3 ADD MSTORE PUSH1 0x64 ADD PUSH1 0x40 MLOAD DUP1 SWAP2 SUB SWAP1 REVERT JUMPDEST PUSH1 0x1 PUSH1 0x1 PUSH1 0xA0 SHL SUB AND PUSH1 0x80 MSTORE PUSH2 0xCA JUMP JUMPDEST PUSH1 0x0 PUSH1 0x20 DUP3 DUP5 SUB SLT ISZERO PUSH2 0xAC JUMPI PUSH1 0x0 DUP1 REVERT JUMPDEST DUP2 MLOAD PUSH1 0x1 PUSH1 0x1 PUSH1 0xA0 SHL SUB DUP2 AND DUP2 EQ PUSH2 0xC3 JUMPI PUSH1 0x0 DUP1 REVERT JUMPDEST SWAP4 SWAP3 POP POP POP JUMP JUMPDEST PUSH1 0x80 MLOAD PUSH2 0x1C1D PUSH2 0xF9 PUSH1 0x0 CODECOPY PUSH1 0x0 DUP2 DUP2 PUSH1 0xBE ADD MSTORE DUP2 DUP2 PUSH2 0x17B ADD MSTORE DUP2 DUP2 PUSH2 0x43C ADD MSTORE PUSH2 0x527 ADD MSTORE PUSH2 0x1C1D PUSH1 0x0 RETURN INVALID PUSH1 0x80 PUSH1 0x40 MSTORE PUSH1 0x4 CALLDATASIZE LT PUSH3 0xA9 JUMPI PUSH1 0x0 CALLDATALOAD PUSH1 0xE0 SHR DUP1 PUSH4 0x5DF45A37 GT PUSH3 0x6C JUMPI DUP1 PUSH4 0x5DF45A37 EQ PUSH3 0x19D JUMPI DUP1 PUSH4 0x7FF08934 EQ PUSH3 0x1BC JUMPI DUP1 PUSH4 0x907FD3C6 EQ PUSH3 0x1E5 JUMPI DUP1 PUSH4 0xA8F32251 EQ PUSH3 0x219 JUMPI DUP1 PUSH4 0xD298DBE2 EQ PUSH3 0x236 JUMPI DUP1 PUSH4 0xFFA1AD74 EQ PUSH3 0x263 JUMPI PUSH1 0x0 DUP1 REVERT JUMPDEST DUP1 PUSH4 0x80885D6 EQ PUSH3 0xAE JUMPI DUP1 PUSH4 0x1AA7EC34 EQ PUSH3 0xFB JUMPI DUP1 PUSH4 0x2673CE9F EQ PUSH3 0x136 JUMPI DUP1 PUSH4 0x476343EE EQ PUSH3 0x14D JUMPI DUP1 PUSH4 0x52BCAA13 EQ PUSH3 0x167 JUMPI JUMPDEST PUSH1 0x0 DUP1 REVERT JUMPDEST CALLVALUE DUP1 ISZERO PUSH3 0xBB JUMPI PUSH1 0x0 DUP1 REVERT JUMPDEST POP PUSH32 0x0 JUMPDEST PUSH1 0x40 MLOAD PUSH1 0x1 PUSH1 0x1 PUSH1 0xA0 SHL SUB SWAP1 SWAP2 AND DUP2 MSTORE PUSH1 0x20 ADD JUMPDEST PUSH1 0x40 MLOAD DUP1 SWAP2 SUB SWAP1 RETURN JUMPDEST CALLVALUE DUP1 ISZERO PUSH3 0x108 JUMPI PUSH1 0x0 DUP1 REVERT JUMPDEST POP PUSH3 0x120 PUSH3 0x11A CALLDATASIZE PUSH1 0x4 PUSH3 0x794 JUMP JUMPDEST PUSH3 0x296 JUMP JUMPDEST PUSH1 0x40 DUP1 MLOAD SWAP3 DUP4 MSTORE PUSH1 0x20 DUP4 ADD SWAP2 SWAP1 SWAP2 MSTORE ADD PUSH3 0xF2 JUMP JUMPDEST PUSH3 0xDE PUSH3 0x147 CALLDATASIZE PUSH1 0x4 PUSH3 0x7DA JUMP JUMPDEST PUSH3 0x2B3 JUMP JUMPDEST CALLVALUE DUP1 ISZERO PUSH3 0x15A JUMPI PUSH1 0x0 DUP1 REVERT JUMPDEST POP PUSH3 0x165 PUSH3 0x51C JUMP JUMPDEST STOP JUMPDEST CALLVALUE DUP1 ISZERO PUSH3 0x174 JUMPI PUSH1 0x0 DUP1 REVERT JUMPDEST POP PUSH3 0xDE PUSH32 0x0 DUP2 JUMP JUMPDEST CALLVALUE DUP1 ISZERO PUSH3 0x1AA JUMPI PUSH1 0x0 DUP1 REVERT JUMPDEST POP SELFBALANCE JUMPDEST PUSH1 0x40 MLOAD SWAP1 DUP2 MSTORE PUSH1 0x20 ADD PUSH3 0xF2 JUMP JUMPDEST CALLVALUE DUP1 ISZERO PUSH3 0x1C9 JUMPI PUSH1 0x0 DUP1 REVERT JUMPDEST POP PUSH3 0x1D4 PUSH3 0x6AC JUMP JUMPDEST PUSH1 0x40 MLOAD PUSH3 0xF2 SWAP4 SWAP3 SWAP2 SWAP1 PUSH3 0x888 JUMP JUMPDEST CALLVALUE DUP1 ISZERO PUSH3 0x1F2 JUMPI PUSH1 0x0 DUP1 REVERT JUMPDEST POP PUSH3 0x20A PUSH3 0x204 CALLDATASIZE PUSH1 0x4 PUSH3 0x8D1 JUMP JUMPDEST PUSH3 0x718 JUMP JUMPDEST PUSH1 0x40 MLOAD PUSH3 0xF2 SWAP2 SWAP1 PUSH3 0x8F4 JUMP JUMPDEST CALLVALUE DUP1 ISZERO PUSH3 0x226 JUMPI PUSH1 0x0 DUP1 REVERT JUMPDEST POP PUSH3 0x1AD PUSH7 0x38D7EA4C68000 DUP2 JUMP JUMPDEST CALLVALUE DUP1 ISZERO PUSH3 0x243 JUMPI PUSH1 0x0 DUP1 REVERT JUMPDEST POP PUSH3 0x1AD PUSH3 0x255 CALLDATASIZE PUSH1 0x4 PUSH3 0x794 JUMP JUMPDEST PUSH7 0x38D7EA4C68000 SWAP3 SWAP2 POP POP JUMP JUMPDEST CALLVALUE DUP1 ISZERO PUSH3 0x270 JUMPI PUSH1 0x0 DUP1 REVERT JUMPDEST POP PUSH3 0x20A PUSH1 0x40 MLOAD DUP1 PUSH1 0x40 ADD PUSH1 0x40 MSTORE DUP1 PUSH1 0x5 DUP2 MSTORE PUSH1 0x20 ADD PUSH5 0x312E302E3 PUSH1 0xDC SHL DUP2 MSTORE POP DUP2 JUMP JUMPDEST PUSH1 0x0 DUP1 PUSH3 0x2A7 DUP4 DUP6 ADD DUP6 PUSH3 0x8D1 JUMP JUMPDEST SWAP2 POP SWAP2 POP JUMPDEST SWAP3 POP SWAP3 SWAP1 POP JUMP JUMPDEST PUSH1 0x0 DUP1 DUP1 PUSH3 0x2C5 DUP5 DUP7 ADD DUP7 PUSH3 0x8D1 JUMP JUMPDEST SWAP2 POP SWAP2 POP PUSH1 0x0 DUP3 GT DUP1 PUSH3 0x2D9 JUMPI POP PUSH1 0x0 DUP2 GT JUMPDEST PUSH3 0x33E JUMPI PUSH1 0x40 MLOAD PUSH3 0x461BCD PUSH1 0xE5 SHL DUP2 MSTORE PUSH1 0x20 PUSH1 0x4 DUP3 ADD MSTORE PUSH1 0x2A PUSH1 0x24 DUP3 ADD MSTORE PUSH32 0x5175697A48616E646C65723A204D7573742070726F76696465206E6F6E2D7A65 PUSH1 0x44 DUP3 ADD MSTORE PUSH10 0x726F2072657761726473 PUSH1 0xB0 SHL PUSH1 0x64 DUP3 ADD MSTORE PUSH1 0x84 ADD JUMPDEST PUSH1 0x40 MLOAD DUP1 SWAP2 SUB SWAP1 REVERT JUMPDEST PUSH7 0x38D7EA4C68000 CALLVALUE GT PUSH3 0x3BE JUMPI PUSH1 0x40 DUP1 MLOAD PUSH3 0x461BCD PUSH1 0xE5 SHL DUP2 MSTORE PUSH1 0x20 PUSH1 0x4 DUP3 ADD MSTORE PUSH1 0x24 DUP2 ADD SWAP2 SWAP1 SWAP2 MSTORE PUSH32 0x5175697A48616E646C65723A20496E73756666696369656E74207061796D656E PUSH1 0x44 DUP3 ADD MSTORE PUSH32 0x7420666F72206465706C6F796D656E742066656520616E642066756E64696E67 PUSH1 0x64 DUP3 ADD MSTORE PUSH1 0x84 ADD PUSH3 0x335 JUMP JUMPDEST PUSH1 0x0 PUSH3 0x3D3 PUSH7 0x38D7EA4C68000 CALLVALUE PUSH3 0x910 JUMP JUMPDEST SWAP1 POP PUSH1 0x0 DUP2 GT PUSH3 0x436 JUMPI PUSH1 0x40 MLOAD PUSH3 0x461BCD PUSH1 0xE5 SHL DUP2 MSTORE PUSH1 0x20 PUSH1 0x4 DUP3 ADD MSTORE PUSH1 0x26 PUSH1 0x24 DUP3 ADD MSTORE PUSH32 0x5175697A48616E646C65723A204D7573742070726F76696465207175697A2066 PUSH1 0x44 DUP3 ADD MSTORE PUSH6 0x756E64696E67 PUSH1 0xD0 SHL PUSH1 0x64 DUP3 ADD MSTORE PUSH1 0x84 ADD PUSH3 0x335 JUMP JUMPDEST PUSH1 0x0 DUP2 DUP9 PUSH32 0x0 DUP7 DUP7 PUSH1 0x40 MLOAD PUSH3 0x46B SWAP1 PUSH3 0x741 JUMP JUMPDEST PUSH1 0x1 PUSH1 0x1 PUSH1 0xA0 SHL SUB SWAP5 DUP6 AND DUP2 MSTORE SWAP4 SWAP1 SWAP3 AND PUSH1 0x20 DUP5 ADD MSTORE PUSH1 0x40 DUP4 ADD MSTORE PUSH1 0x60 DUP3 ADD MSTORE PUSH1 0x80 ADD PUSH1 0x40 MLOAD DUP1 SWAP2 SUB SWAP1 DUP3 CREATE SWAP1 POP DUP1 ISZERO DUP1 ISZERO PUSH3 0x4AC JUMPI RETURNDATASIZE PUSH1 0x0 DUP1 RETURNDATACOPY RETURNDATASIZE PUSH1 0x0 REVERT JUMPDEST POP PUSH1 0x40 DUP1 MLOAD DUP7 DUP2 MSTORE PUSH1 0x20 DUP2 ADD DUP7 SWAP1 MSTORE SWAP1 DUP2 ADD DUP5 SWAP1 MSTORE PUSH7 0x38D7EA4C68000 PUSH1 0x60 DUP3 ADD MSTORE SWAP1 SWAP6 POP DUP6 SWAP2 POP PUSH1 0x1 PUSH1 0x1 PUSH1 0xA0 SHL SUB DUP1 DUP4 AND SWAP2 SWAP1 DUP11 AND SWAP1 PUSH32 0x3F26DB352B9A3383677028A245639B0FF66037DB60E00C22E867BBE449D527CA SWAP1 PUSH1 0x80 ADD PUSH1 0x40 MLOAD DUP1 SWAP2 SUB SWAP1 LOG3 POP POP POP POP SWAP4 SWAP3 POP POP POP JUMP JUMPDEST CALLER PUSH1 0x1 PUSH1 0x1 PUSH1 0xA0 SHL SUB PUSH32 0x0 AND EQ PUSH3 0x5B1 JUMPI PUSH1 0x40 MLOAD PUSH3 0x461BCD PUSH1 0xE5 SHL DUP2 MSTORE PUSH1 0x20 PUSH1 0x4 DUP3 ADD MSTORE PUSH1 0x32 PUSH1 0x24 DUP3 ADD MSTORE PUSH32 0x5175697A48616E646C65723A204F6E6C7920617574686F72697A656420626F74 PUSH1 0x44 DUP3 ADD MSTORE PUSH18 0x2063616E2077697468647261772066656573 PUSH1 0x70 SHL PUSH1 0x64 DUP3 ADD MSTORE PUSH1 0x84 ADD PUSH3 0x335 JUMP JUMPDEST SELFBALANCE DUP1 PUSH3 0x601 JUMPI PUSH1 0x40 MLOAD PUSH3 0x461BCD PUSH1 0xE5 SHL DUP2 MSTORE PUSH1 0x20 PUSH1 0x4 DUP3 ADD DUP2 SWAP1 MSTORE PUSH1 0x24 DUP3 ADD MSTORE PUSH32 0x5175697A48616E646C65723A204E6F206665657320746F207769746864726177 PUSH1 0x44 DUP3 ADD MSTORE PUSH1 0x64 ADD PUSH3 0x335 JUMP JUMPDEST PUSH1 0x40 MLOAD PUSH1 0x0 SWAP1 CALLER SWAP1 DUP4 SWAP1 DUP4 DUP2 DUP2 DUP2 DUP6 DUP8 GAS CALL SWAP3 POP POP POP RETURNDATASIZE DUP1 PUSH1 0x0 DUP2 EQ PUSH3 0x645 JUMPI PUSH1 0x40 MLOAD SWAP2 POP PUSH1 0x1F NOT PUSH1 0x3F RETURNDATASIZE ADD AND DUP3 ADD PUSH1 0x40 MSTORE RETURNDATASIZE DUP3 MSTORE RETURNDATASIZE PUSH1 0x0 PUSH1 0x20 DUP5 ADD RETURNDATACOPY PUSH3 0x64A JUMP JUMPDEST PUSH1 0x60 SWAP2 POP JUMPDEST POP POP SWAP1 POP DUP1 PUSH3 0x6A8 JUMPI PUSH1 0x40 MLOAD PUSH3 0x461BCD PUSH1 0xE5 SHL DUP2 MSTORE PUSH1 0x20 PUSH1 0x4 DUP3 ADD MSTORE PUSH1 0x22 PUSH1 0x24 DUP3 ADD MSTORE PUSH32 0x5175697A48616E646C65723A20466565207769746864726177616C206661696C PUSH1 0x44 DUP3 ADD MSTORE PUSH2 0x1959 PUSH1 0xF2 SHL PUSH1 0x64 DUP3 ADD MSTORE PUSH1 0x84 ADD PUSH3 0x335 JUMP JUMPDEST POP POP JUMP JUMPDEST PUSH1 0x60 DUP1 PUSH1 0x60 PUSH1 0x40 MLOAD DUP1 PUSH1 0x40 ADD PUSH1 0x40 MSTORE DUP1 PUSH1 0x5 DUP2 MSTORE PUSH1 0x20 ADD PUSH5 0x312E302E3 PUSH1 0xDC SHL DUP2 MSTORE POP PUSH1 0x40 MLOAD DUP1 PUSH1 0x40 ADD PUSH1 0x40 MSTORE DUP1 PUSH1 0xA DUP2 MSTORE PUSH1 0x20 ADD PUSH10 0x5175697A457363726F77 PUSH1 0xB0 SHL DUP2 MSTORE POP SWAP1 PUSH1 0x40 MLOAD DUP1 PUSH1 0x80 ADD PUSH1 0x40 MSTORE DUP1 PUSH1 0x58 DUP2 MSTORE PUSH1 0x20 ADD PUSH3 0x1B90 PUSH1 0x58 SWAP2 CODECOPY SWAP3 POP SWAP3 POP SWAP3 POP SWAP1 SWAP2 SWAP3 JUMP JUMPDEST PUSH1 0x40 DUP1 MLOAD PUSH1 0x20 DUP2 ADD DUP5 SWAP1 MSTORE DUP1 DUP3 ADD DUP4 SWAP1 MSTORE DUP2 MLOAD DUP1 DUP3 SUB DUP4 ADD DUP2 MSTORE PUSH1 0x60 SWAP1 SWAP2 ADD SWAP1 SWAP2 MSTORE JUMPDEST SWAP3 SWAP2 POP POP JUMP JUMPDEST PUSH2 0x125D DUP1 PUSH3 0x933 DUP4 CODECOPY ADD SWAP1 JUMP JUMPDEST PUSH1 0x0 DUP1 DUP4 PUSH1 0x1F DUP5 ADD SLT PUSH3 0x762 JUMPI PUSH1 0x0 DUP1 REVERT JUMPDEST POP DUP2 CALLDATALOAD PUSH8 0xFFFFFFFFFFFFFFFF DUP2 GT ISZERO PUSH3 0x77B JUMPI PUSH1 0x0 DUP1 REVERT JUMPDEST PUSH1 0x20 DUP4 ADD SWAP2 POP DUP4 PUSH1 0x20 DUP3 DUP6 ADD ADD GT ISZERO PUSH3 0x2AC JUMPI PUSH1 0x0 DUP1 REVERT JUMPDEST PUSH1 0x0 DUP1 PUSH1 0x20 DUP4 DUP6 SUB SLT ISZERO PUSH3 0x7A8 JUMPI PUSH1 0x0 DUP1 REVERT JUMPDEST DUP3 CALLDATALOAD PUSH8 0xFFFFFFFFFFFFFFFF DUP2 GT ISZERO PUSH3 0x7C0 JUMPI PUSH1 0x0 DUP1 REVERT JUMPDEST PUSH3 0x7CE DUP6 DUP3 DUP7 ADD PUSH3 0x74F JUMP JUMPDEST SWAP1 SWAP7 SWAP1 SWAP6 POP SWAP4 POP POP POP POP JUMP JUMPDEST PUSH1 0x0 DUP1 PUSH1 0x0 PUSH1 0x40 DUP5 DUP7 SUB SLT ISZERO PUSH3 0x7F0 JUMPI PUSH1 0x0 DUP1 REVERT JUMPDEST DUP4 CALLDATALOAD PUSH1 0x1 PUSH1 0x1 PUSH1 0xA0 SHL SUB DUP2 AND DUP2 EQ PUSH3 0x808 JUMPI PUSH1 0x0 DUP1 REVERT JUMPDEST SWAP3 POP PUSH1 0x20 DUP5 ADD CALLDATALOAD PUSH8 0xFFFFFFFFFFFFFFFF DUP2 GT ISZERO PUSH3 0x825 JUMPI PUSH1 0x0 DUP1 REVERT JUMPDEST PUSH3 0x833 DUP7 DUP3 DUP8 ADD PUSH3 0x74F JUMP JUMPDEST SWAP5 SWAP8 SWAP1 SWAP7 POP SWAP4 SWAP5 POP POP POP POP JUMP JUMPDEST PUSH1 0x0 DUP2 MLOAD DUP1 DUP5 MSTORE PUSH1 0x0 JUMPDEST DUP2 DUP2 LT ISZERO PUSH3 0x868 JUMPI PUSH1 0x20 DUP2 DUP6 ADD DUP2 ADD MLOAD DUP7 DUP4 ADD DUP3 ADD MSTORE ADD PUSH3 0x84A JUMP JUMPDEST POP PUSH1 0x0 PUSH1 0x20 DUP3 DUP7 ADD ADD MSTORE PUSH1 0x20 PUSH1 0x1F NOT PUSH1 0x1F DUP4 ADD AND DUP6 ADD ADD SWAP2 POP POP SWAP3 SWAP2 POP POP JUMP JUMPDEST PUSH1 0x60 DUP2 MSTORE PUSH1 0x0 PUSH3 0x89D PUSH1 0x60 DUP4 ADD DUP7 PUSH3 0x840 JUMP JUMPDEST DUP3 DUP2 SUB PUSH1 0x20 DUP5 ADD MSTORE PUSH3 0x8B1 DUP2 DUP7 PUSH3 0x840 JUMP JUMPDEST SWAP1 POP DUP3 DUP2 SUB PUSH1 0x40 DUP5 ADD MSTORE PUSH3 0x8C7 DUP2 DUP6 PUSH3 0x840 JUMP JUMPDEST SWAP7 SWAP6 POP POP POP POP POP POP JUMP JUMPDEST PUSH1 0x0 DUP1 PUSH1 0x40 DUP4 DUP6 SUB SLT ISZERO PUSH3 0x8E5 JUMPI PUSH1 0x0 DUP1 REVERT JUMPDEST POP POP DUP1 CALLDATALOAD SWAP3 PUSH1 0x20 SWAP1 SWAP2 ADD CALLDATALOAD SWAP2 POP JUMP JUMPDEST PUSH1 0x20 DUP2 MSTORE PUSH1 0x0 PUSH3 0x909 PUSH1 0x20 DUP4 ADD DUP5 PUSH3 0x840 JUMP JUMPDEST SWAP4 SWAP3 POP POP POP JUMP JUMPDEST DUP2 DUP2 SUB DUP2 DUP2 GT ISZERO PUSH3 0x73B JUMPI PUSH4 0x4E487B71 PUSH1 0xE0 SHL PUSH1 0x0 MSTORE PUSH1 0x11 PUSH1 0x4 MSTORE PUSH1 0x24 PUSH1 0x0 REVERT INVALID PUSH2 0x140 PUSH1 0x40 MSTORE PUSH1 0x40 MLOAD PUSH3 0x125D CODESIZE SUB DUP1 PUSH3 0x125D DUP4 CODECOPY DUP2 ADD PUSH1 0x40 DUP2 SWAP1 MSTORE PUSH3 0x27 SWAP2 PUSH3 0x241 JUMP JUMPDEST PUSH1 0x1 PUSH1 0x1 PUSH1 0xA0 SHL SUB DUP5 AND PUSH3 0x8F JUMPI PUSH1 0x40 MLOAD PUSH3 0x461BCD PUSH1 0xE5 SHL DUP2 MSTORE PUSH1 0x20 PUSH1 0x4 DUP3 ADD MSTORE PUSH1 0x23 PUSH1 0x24 DUP3 ADD MSTORE PUSH32 0x5175697A457363726F773A20496E76616C69642063726561746F722061646472 PUSH1 0x44 DUP3 ADD MSTORE PUSH3 0x657373 PUSH1 0xE8 SHL PUSH1 0x64 DUP3 ADD MSTORE PUSH1 0x84 ADD JUMPDEST PUSH1 0x40 MLOAD DUP1 SWAP2 SUB SWAP1 REVERT JUMPDEST PUSH1 0x1 PUSH1 0x1 PUSH1 0xA0 SHL SUB DUP4 AND PUSH3 0xE7 JUMPI PUSH1 0x40 MLOAD PUSH3 0x461BCD PUSH1 0xE5 SHL DUP2 MSTORE PUSH1 0x20 PUSH1 0x4 DUP3 ADD MSTORE PUSH1 0x1F PUSH1 0x24 DUP3 ADD MSTORE PUSH32 0x5175697A457363726F773A20496E76616C696420626F74206164647265737300 PUSH1 0x44 DUP3 ADD MSTORE PUSH1 0x64 ADD PUSH3 0x86 JUMP JUMPDEST PUSH1 0x0 CALLVALUE GT PUSH3 0x139 JUMPI PUSH1 0x40 MLOAD PUSH3 0x461BCD PUSH1 0xE5 SHL DUP2 MSTORE PUSH1 0x20 PUSH1 0x4 DUP3 ADD DUP2 SWAP1 MSTORE PUSH1 0x24 DUP3 ADD MSTORE PUSH32 0x5175697A457363726F773A204D7573742070726F766964652066756E64696E67 PUSH1 0x44 DUP3 ADD MSTORE PUSH1 0x64 ADD PUSH3 0x86 JUMP JUMPDEST PUSH1 0x0 DUP3 GT DUP1 PUSH3 0x149 JUMPI POP PUSH1 0x0 DUP2 GT JUMPDEST PUSH3 0x1A9 JUMPI PUSH1 0x40 MLOAD PUSH3 0x461BCD PUSH1 0xE5 SHL DUP2 MSTORE PUSH1 0x20 PUSH1 0x4 DUP3 ADD MSTORE PUSH1 0x29 PUSH1 0x24 DUP3 ADD MSTORE PUSH32 0x5175697A457363726F773A204D7573742070726F76696465206E6F6E2D7A6572 PUSH1 0x44 DUP3 ADD MSTORE PUSH9 0x6F2072657761726473 PUSH1 0xB8 SHL PUSH1 0x64 DUP3 ADD MSTORE PUSH1 0x84 ADD PUSH3 0x86 JUMP JUMPDEST PUSH1 0x1 PUSH1 0x1 PUSH1 0xA0 SHL SUB DUP5 DUP2 AND PUSH1 0x80 DUP2 SWAP1 MSTORE SWAP1 DUP5 AND PUSH1 0xA0 DUP2 SWAP1 MSTORE TIMESTAMP PUSH1 0xC0 MSTORE CALLVALUE PUSH1 0xE0 DUP2 SWAP1 MSTORE PUSH2 0x100 DUP6 SWAP1 MSTORE PUSH2 0x120 DUP5 SWAP1 MSTORE PUSH1 0x40 DUP1 MLOAD SWAP2 DUP3 MSTORE PUSH1 0x20 DUP3 ADD DUP7 SWAP1 MSTORE DUP2 ADD DUP5 SWAP1 MSTORE SWAP1 SWAP2 SWAP1 PUSH32 0x7827AF77E7B6672ABD014A70DD2023F4FE7C0E5F4C029A83295CBF193A8F8EA0 SWAP1 PUSH1 0x60 ADD PUSH1 0x40 MLOAD DUP1 SWAP2 SUB SWAP1 LOG3 POP POP POP POP PUSH3 0x289 JUMP JUMPDEST DUP1 MLOAD PUSH1 0x1 PUSH1 0x1 PUSH1 0xA0 SHL SUB DUP2 AND DUP2 EQ PUSH3 0x23C JUMPI PUSH1 0x0 DUP1 REVERT JUMPDEST SWAP2 SWAP1 POP JUMP JUMPDEST PUSH1 0x0 DUP1 PUSH1 0x0 DUP1 PUSH1 0x80 DUP6 DUP8 SUB SLT ISZERO PUSH3 0x258 JUMPI PUSH1 0x0 DUP1 REVERT JUMPDEST PUSH3 0x263 DUP6 PUSH3 0x224 JUMP JUMPDEST SWAP4 POP PUSH3 0x273 PUSH1 0x20 DUP7 ADD PUSH3 0x224 JUMP JUMPDEST PUSH1 0x40 DUP7 ADD MLOAD PUSH1 0x60 SWAP1 SWAP7 ADD MLOAD SWAP5 SWAP8 SWAP1 SWAP7 POP SWAP3 POP POP POP JUMP JUMPDEST PUSH1 0x80 MLOAD PUSH1 0xA0 MLOAD PUSH1 0xC0 MLOAD PUSH1 0xE0 MLOAD PUSH2 0x100 MLOAD PUSH2 0x120 MLOAD PUSH2 0xF3E PUSH3 0x31F PUSH1 0x0 CODECOPY PUSH1 0x0 DUP2 DUP2 PUSH2 0x233 ADD MSTORE PUSH2 0x70A ADD MSTORE PUSH1 0x0 DUP2 DUP2 PUSH2 0x25A ADD MSTORE PUSH2 0x734 ADD MSTORE PUSH1 0x0 PUSH2 0x17A ADD MSTORE PUSH1 0x0 DUP2 DUP2 PUSH2 0x2F1 ADD MSTORE DUP2 DUP2 PUSH2 0x53D ADD MSTORE DUP2 DUP2 PUSH2 0x9CA ADD MSTORE DUP2 DUP2 PUSH2 0xCA1 ADD MSTORE PUSH2 0xD76 ADD MSTORE PUSH1 0x0 DUP2 DUP2 PUSH2 0x1E6 ADD MSTORE DUP2 DUP2 PUSH2 0x454 ADD MSTORE PUSH2 0xA06 ADD MSTORE PUSH1 0x0 DUP2 DUP2 PUSH2 0x136 ADD MSTORE DUP2 DUP2 PUSH2 0xB04 ADD MSTORE PUSH2 0xBDB ADD MSTORE PUSH2 0xF3E PUSH1 0x0 RETURN INVALID PUSH1 0x80 PUSH1 0x40 MSTORE CALLVALUE DUP1 ISZERO PUSH2 0x10 JUMPI PUSH1 0x0 DUP1 REVERT JUMPDEST POP PUSH1 0x4 CALLDATASIZE LT PUSH2 0x12C JUMPI PUSH1 0x0 CALLDATALOAD PUSH1 0xE0 SHR DUP1 PUSH4 0x6381EEA6 GT PUSH2 0xAD JUMPI DUP1 PUSH4 0xD2356593 GT PUSH2 0x71 JUMPI DUP1 PUSH4 0xD2356593 EQ PUSH2 0x2E3 JUMPI DUP1 PUSH4 0xD8270DCE EQ PUSH2 0x2EC JUMPI DUP1 PUSH4 0xDC1892E6 EQ PUSH2 0x313 JUMPI DUP1 PUSH4 0xE41C3CE4 EQ PUSH2 0x36D JUMPI DUP1 PUSH4 0xEFB98BCF EQ PUSH2 0x3B5 JUMPI PUSH1 0x0 DUP1 REVERT JUMPDEST DUP1 PUSH4 0x6381EEA6 EQ PUSH2 0x22E JUMPI DUP1 PUSH4 0x7B427204 EQ PUSH2 0x255 JUMPI DUP1 PUSH4 0xA26DBF26 EQ PUSH2 0x27C JUMPI DUP1 PUSH4 0xA4FD6F56 EQ PUSH2 0x285 JUMPI DUP1 PUSH4 0xC7F43D58 EQ PUSH2 0x2A2 JUMPI PUSH1 0x0 DUP1 REVERT JUMPDEST DUP1 PUSH4 0x2820AECE GT PUSH2 0xF4 JUMPI DUP1 PUSH4 0x2820AECE EQ PUSH2 0x1CE JUMPI DUP1 PUSH4 0x52BCAA13 EQ PUSH2 0x1E1 JUMPI DUP1 PUSH4 0x55ACBB78 EQ PUSH2 0x208 JUMPI DUP1 PUSH4 0x55E08C2B EQ PUSH2 0x211 JUMPI DUP1 PUSH4 0x5B0700A8 EQ PUSH2 0x226 JUMPI PUSH1 0x0 DUP1 REVERT JUMPDEST DUP1 PUSH4 0x2D05D3F EQ PUSH2 0x131 JUMPI DUP1 PUSH4 0x4A79C97 EQ PUSH2 0x175 JUMPI DUP1 PUSH4 0x12065FE0 EQ PUSH2 0x1AA JUMPI DUP1 PUSH4 0x1357E1DC EQ PUSH2 0x1B0 JUMPI DUP1 PUSH4 0x195EC9EE EQ PUSH2 0x1B9 JUMPI JUMPDEST PUSH1 0x0 DUP1 REVERT JUMPDEST PUSH2 0x158 PUSH32 0x0 DUP2 JUMP JUMPDEST PUSH1 0x40 MLOAD PUSH1 0x1 PUSH1 0x1 PUSH1 0xA0 SHL SUB SWAP1 SWAP2 AND DUP2 MSTORE PUSH1 0x20 ADD JUMPDEST PUSH1 0x40 MLOAD DUP1 SWAP2 SUB SWAP1 RETURN JUMPDEST PUSH2 0x19C PUSH32 0x0 DUP2 JUMP JUMPDEST PUSH1 0x40 MLOAD SWAP1 DUP2 MSTORE PUSH1 0x20 ADD PUSH2 0x16C JUMP JUMPDEST SELFBALANCE PUSH2 0x19C JUMP JUMPDEST PUSH2 0x19C PUSH1 0x0 SLOAD DUP2 JUMP JUMPDEST PUSH2 0x1C1 PUSH2 0x3BD JUMP JUMPDEST PUSH1 0x40 MLOAD PUSH2 0x16C SWAP2 SWAP1 PUSH2 0xDBF JUMP JUMPDEST PUSH2 0x158 PUSH2 0x1DC CALLDATASIZE PUSH1 0x4 PUSH2 0xE0C JUMP JUMPDEST PUSH2 0x41F JUMP JUMPDEST PUSH2 0x158 PUSH32 0x0 DUP2 JUMP JUMPDEST PUSH2 0x19C PUSH1 0x4 SLOAD DUP2 JUMP JUMPDEST PUSH2 0x224 PUSH2 0x21F CALLDATASIZE PUSH1 0x4 PUSH2 0xE41 JUMP JUMPDEST PUSH2 0x449 JUMP JUMPDEST STOP JUMPDEST PUSH2 0x224 PUSH2 0x9C5 JUMP JUMPDEST PUSH2 0x19C PUSH32 0x0 DUP2 JUMP JUMPDEST PUSH2 0x19C PUSH32 0x0 DUP2 JUMP JUMPDEST PUSH2 0x19C PUSH1 0x2 SLOAD DUP2 JUMP JUMPDEST PUSH1 0x1 SLOAD PUSH2 0x292 SWAP1 PUSH1 0xFF AND DUP2 JUMP JUMPDEST PUSH1 0x40 MLOAD SWAP1 ISZERO ISZERO DUP2 MSTORE PUSH1 0x20 ADD PUSH2 0x16C JUMP JUMPDEST PUSH2 0x2AA PUSH2 0xC87 JUMP JUMPDEST PUSH1 0x40 DUP1 MLOAD SWAP8 DUP9 MSTORE PUSH1 0x20 DUP9 ADD SWAP7 SWAP1 SWAP7 MSTORE SWAP5 DUP7 ADD SWAP4 SWAP1 SWAP4 MSTORE PUSH1 0x60 DUP6 ADD SWAP2 SWAP1 SWAP2 MSTORE PUSH1 0x80 DUP5 ADD MSTORE ISZERO ISZERO PUSH1 0xA0 DUP4 ADD MSTORE ISZERO ISZERO PUSH1 0xC0 DUP3 ADD MSTORE PUSH1 0xE0 ADD PUSH2 0x16C JUMP JUMPDEST PUSH2 0x19C PUSH1 0x3 SLOAD DUP2 JUMP JUMPDEST PUSH2 0x19C PUSH32 0x0 DUP2 JUMP JUMPDEST PUSH2 0x34B PUSH2 0x321 CALLDATASIZE PUSH1 0x4 PUSH2 0xE74 JUMP JUMPDEST PUSH1 0x6 PUSH1 0x20 MSTORE PUSH1 0x0 SWAP1 DUP2 MSTORE PUSH1 0x40 SWAP1 KECCAK256 DUP1 SLOAD PUSH1 0x1 DUP3 ADD SLOAD PUSH1 0x2 DUP4 ADD SLOAD PUSH1 0x3 SWAP1 SWAP4 ADD SLOAD SWAP2 SWAP3 SWAP1 SWAP2 PUSH1 0xFF AND DUP5 JUMP JUMPDEST PUSH1 0x40 DUP1 MLOAD SWAP5 DUP6 MSTORE PUSH1 0x20 DUP6 ADD SWAP4 SWAP1 SWAP4 MSTORE SWAP2 DUP4 ADD MSTORE ISZERO ISZERO PUSH1 0x60 DUP3 ADD MSTORE PUSH1 0x80 ADD PUSH2 0x16C JUMP JUMPDEST PUSH2 0x380 PUSH2 0x37B CALLDATASIZE PUSH1 0x4 PUSH2 0xE74 JUMP JUMPDEST PUSH2 0xCEE JUMP JUMPDEST PUSH1 0x40 MLOAD PUSH2 0x16C SWAP2 SWAP1 DUP2 MLOAD DUP2 MSTORE PUSH1 0x20 DUP1 DUP4 ADD MLOAD SWAP1 DUP3 ADD MSTORE PUSH1 0x40 DUP1 DUP4 ADD MLOAD SWAP1 DUP3 ADD MSTORE PUSH1 0x60 SWAP2 DUP3 ADD MLOAD ISZERO ISZERO SWAP2 DUP2 ADD SWAP2 SWAP1 SWAP2 MSTORE PUSH1 0x80 ADD SWAP1 JUMP JUMPDEST PUSH2 0x19C PUSH2 0xD6E JUMP JUMPDEST PUSH1 0x60 PUSH1 0x5 DUP1 SLOAD DUP1 PUSH1 0x20 MUL PUSH1 0x20 ADD PUSH1 0x40 MLOAD SWAP1 DUP2 ADD PUSH1 0x40 MSTORE DUP1 SWAP3 SWAP2 SWAP1 DUP2 DUP2 MSTORE PUSH1 0x20 ADD DUP3 DUP1 SLOAD DUP1 ISZERO PUSH2 0x415 JUMPI PUSH1 0x20 MUL DUP3 ADD SWAP2 SWAP1 PUSH1 0x0 MSTORE PUSH1 0x20 PUSH1 0x0 KECCAK256 SWAP1 JUMPDEST DUP2 SLOAD PUSH1 0x1 PUSH1 0x1 PUSH1 0xA0 SHL SUB AND DUP2 MSTORE PUSH1 0x1 SWAP1 SWAP2 ADD SWAP1 PUSH1 0x20 ADD DUP1 DUP4 GT PUSH2 0x3F7 JUMPI JUMPDEST POP POP POP POP POP SWAP1 POP SWAP1 JUMP JUMPDEST PUSH1 0x5 DUP2 DUP2 SLOAD DUP2 LT PUSH2 0x42F JUMPI PUSH1 0x0 DUP1 REVERT JUMPDEST PUSH1 0x0 SWAP2 DUP3 MSTORE PUSH1 0x20 SWAP1 SWAP2 KECCAK256 ADD SLOAD PUSH1 0x1 PUSH1 0x1 PUSH1 0xA0 SHL SUB AND SWAP1 POP DUP2 JUMP JUMPDEST CALLER PUSH1 0x1 PUSH1 0x1 PUSH1 0xA0 SHL SUB PUSH32 0x0 AND EQ PUSH2 0x4E5 JUMPI PUSH1 0x40 MLOAD PUSH3 0x461BCD PUSH1 0xE5 SHL DUP2 MSTORE PUSH1 0x20 PUSH1 0x4 DUP3 ADD MSTORE PUSH1 0x36 PUSH1 0x24 DUP3 ADD MSTORE PUSH32 0x5175697A457363726F773A204F6E6C7920617574686F72697A656420626F7420 PUSH1 0x44 DUP3 ADD MSTORE PUSH22 0x31B0B71031B0B636103A3434B990333AB731BA34B7B7 PUSH1 0x51 SHL PUSH1 0x64 DUP3 ADD MSTORE PUSH1 0x84 ADD JUMPDEST PUSH1 0x40 MLOAD DUP1 SWAP2 SUB SWAP1 REVERT JUMPDEST PUSH1 0x1 SLOAD PUSH1 0xFF AND ISZERO PUSH2 0x538 JUMPI PUSH1 0x40 MLOAD PUSH3 0x461BCD PUSH1 0xE5 SHL DUP2 MSTORE PUSH1 0x20 PUSH1 0x4 DUP3 ADD MSTORE PUSH1 0x1A PUSH1 0x24 DUP3 ADD MSTORE PUSH32 0x5175697A457363726F773A205175697A2068617320656E646564000000000000 PUSH1 0x44 DUP3 ADD MSTORE PUSH1 0x64 ADD PUSH2 0x4DC JUMP JUMPDEST PUSH2 0x565 PUSH32 0x0 PUSH3 0x15180 PUSH2 0xEAC JUMP JUMPDEST TIMESTAMP LT PUSH2 0x5B3 JUMPI PUSH1 0x40 MLOAD PUSH3 0x461BCD PUSH1 0xE5 SHL DUP2 MSTORE PUSH1 0x20 PUSH1 0x4 DUP3 ADD MSTORE PUSH1 0x1C PUSH1 0x24 DUP3 ADD MSTORE PUSH32 0x5175697A457363726F773A205175697A20686173206578706972656400000000 PUSH1 0x44 DUP3 ADD MSTORE PUSH1 0x64 ADD PUSH2 0x4DC JUMP JUMPDEST PUSH1 0x1 PUSH1 0x1 PUSH1 0xA0 SHL SUB DUP4 AND PUSH2 0x619 JUMPI PUSH1 0x40 MLOAD PUSH3 0x461BCD PUSH1 0xE5 SHL DUP2 MSTORE PUSH1 0x20 PUSH1 0x4 DUP3 ADD MSTORE PUSH1 0x27 PUSH1 0x24 DUP3 ADD MSTORE PUSH32 0x5175697A457363726F773A20496E76616C6964207061727469636970616E7420 PUSH1 0x44 DUP3 ADD MSTORE PUSH7 0x61646472657373 PUSH1 0xC8 SHL PUSH1 0x64 DUP3 ADD MSTORE PUSH1 0x84 ADD PUSH2 0x4DC JUMP JUMPDEST PUSH1 0x1 PUSH1 0x1 PUSH1 0xA0 SHL SUB DUP4 AND PUSH1 0x0 SWAP1 DUP2 MSTORE PUSH1 0x6 PUSH1 0x20 MSTORE PUSH1 0x40 SWAP1 KECCAK256 PUSH1 0x3 ADD SLOAD PUSH1 0xFF AND ISZERO PUSH2 0x696 JUMPI PUSH1 0x40 MLOAD PUSH3 0x461BCD PUSH1 0xE5 SHL DUP2 MSTORE PUSH1 0x20 PUSH1 0x4 DUP3 ADD MSTORE PUSH1 0x28 PUSH1 0x24 DUP3 ADD MSTORE PUSH32 0x5175697A457363726F773A205061727469636970616E7420616C726561647920 PUSH1 0x44 DUP3 ADD MSTORE PUSH8 0x1C9958DBDC991959 PUSH1 0xC2 SHL PUSH1 0x64 DUP3 ADD MSTORE PUSH1 0x84 ADD PUSH2 0x4DC JUMP JUMPDEST PUSH1 0x0 DUP3 GT DUP1 PUSH2 0x6A5 JUMPI POP PUSH1 0x0 DUP2 GT JUMPDEST PUSH2 0x703 JUMPI PUSH1 0x40 MLOAD PUSH3 0x461BCD PUSH1 0xE5 SHL DUP2 MSTORE PUSH1 0x20 PUSH1 0x4 DUP3 ADD MSTORE PUSH1 0x29 PUSH1 0x24 DUP3 ADD MSTORE PUSH32 0x5175697A457363726F773A204D7573742068617665206174206C65617374206F PUSH1 0x44 DUP3 ADD MSTORE PUSH9 0x37329030B739BBB2B9 PUSH1 0xB9 SHL PUSH1 0x64 DUP3 ADD MSTORE PUSH1 0x84 ADD PUSH2 0x4DC JUMP JUMPDEST PUSH1 0x0 PUSH2 0x72F PUSH32 0x0 DUP4 PUSH2 0xEC5 JUMP JUMPDEST PUSH2 0x759 PUSH32 0x0 DUP6 PUSH2 0xEC5 JUMP JUMPDEST PUSH2 0x763 SWAP2 SWAP1 PUSH2 0xEAC JUMP JUMPDEST SWAP1 POP SELFBALANCE DUP2 GT ISZERO PUSH2 0x7C7 JUMPI PUSH1 0x40 MLOAD PUSH3 0x461BCD PUSH1 0xE5 SHL DUP2 MSTORE PUSH1 0x20 PUSH1 0x4 DUP3 ADD MSTORE PUSH1 0x29 PUSH1 0x24 DUP3 ADD MSTORE PUSH32 0x5175697A457363726F773A20496E73756666696369656E742066756E64732066 PUSH1 0x44 DUP3 ADD MSTORE PUSH9 0x1BDC881C185E5BDD5D PUSH1 0xBA SHL PUSH1 0x64 DUP3 ADD MSTORE PUSH1 0x84 ADD PUSH2 0x4DC JUMP JUMPDEST PUSH1 0x40 DUP1 MLOAD PUSH1 0x80 DUP2 ADD DUP3 MSTORE DUP5 DUP2 MSTORE PUSH1 0x20 DUP1 DUP3 ADD DUP6 DUP2 MSTORE DUP3 DUP5 ADD DUP6 DUP2 MSTORE PUSH1 0x1 PUSH1 0x60 DUP6 ADD DUP2 DUP2 MSTORE PUSH1 0x1 PUSH1 0x1 PUSH1 0xA0 SHL SUB DUP12 AND PUSH1 0x0 DUP2 DUP2 MSTORE PUSH1 0x6 SWAP1 SWAP7 MSTORE SWAP7 DUP6 KECCAK256 SWAP6 MLOAD DUP7 SSTORE SWAP3 MLOAD DUP6 DUP3 ADD SSTORE SWAP1 MLOAD PUSH1 0x2 DUP1 DUP7 ADD SWAP2 SWAP1 SWAP2 SSTORE SWAP2 MLOAD PUSH1 0x3 SWAP1 SWAP5 ADD DUP1 SLOAD PUSH1 0xFF NOT AND SWAP5 ISZERO ISZERO SWAP5 SWAP1 SWAP5 OR SWAP1 SWAP4 SSTORE PUSH1 0x5 DUP1 SLOAD SWAP4 DUP5 ADD DUP2 SSTORE DUP3 MSTORE PUSH32 0x36B6384B5ECA791C62761152D0C79BB0604C104A5FB6F4EB0703F3154BB3DB0 SWAP1 SWAP3 ADD DUP1 SLOAD PUSH1 0x1 PUSH1 0x1 PUSH1 0xA0 SHL SUB NOT AND SWAP1 SWAP4 OR SWAP1 SWAP3 SSTORE DUP1 SLOAD SWAP2 PUSH2 0x87B DUP4 PUSH2 0xEDC JUMP JUMPDEST SWAP2 SWAP1 POP SSTORE POP DUP3 PUSH1 0x3 PUSH1 0x0 DUP3 DUP3 SLOAD PUSH2 0x892 SWAP2 SWAP1 PUSH2 0xEAC JUMP JUMPDEST SWAP3 POP POP DUP2 SWAP1 SSTORE POP DUP2 PUSH1 0x4 PUSH1 0x0 DUP3 DUP3 SLOAD PUSH2 0x8AB SWAP2 SWAP1 PUSH2 0xEAC JUMP JUMPDEST SWAP3 POP POP DUP2 SWAP1 SSTORE POP DUP1 PUSH1 0x0 DUP1 DUP3 DUP3 SLOAD PUSH2 0x8C3 SWAP2 SWAP1 PUSH2 0xEAC JUMP JUMPDEST SWAP1 SWAP2 SSTORE POP POP DUP1 ISZERO PUSH2 0x973 JUMPI PUSH1 0x0 DUP5 PUSH1 0x1 PUSH1 0x1 PUSH1 0xA0 SHL SUB AND DUP3 PUSH1 0x40 MLOAD PUSH1 0x0 PUSH1 0x40 MLOAD DUP1 DUP4 SUB DUP2 DUP6 DUP8 GAS CALL SWAP3 POP POP POP RETURNDATASIZE DUP1 PUSH1 0x0 DUP2 EQ PUSH2 0x91B JUMPI PUSH1 0x40 MLOAD SWAP2 POP PUSH1 0x1F NOT PUSH1 0x3F RETURNDATASIZE ADD AND DUP3 ADD PUSH1 0x40 MSTORE RETURNDATASIZE DUP3 MSTORE RETURNDATASIZE PUSH1 0x0 PUSH1 0x20 DUP5 ADD RETURNDATACOPY PUSH2 0x920 JUMP JUMPDEST PUSH1 0x60 SWAP2 POP JUMPDEST POP POP SWAP1 POP DUP1 PUSH2 0x971 JUMPI PUSH1 0x40 MLOAD PUSH3 0x461BCD PUSH1 0xE5 SHL DUP2 MSTORE PUSH1 0x20 PUSH1 0x4 DUP3 ADD MSTORE PUSH1 0x1A PUSH1 0x24 DUP3 ADD MSTORE PUSH32 0x5175697A457363726F773A205061796D656E74206661696C6564000000000000 PUSH1 0x44 DUP3 ADD MSTORE PUSH1 0x64 ADD PUSH2 0x4DC JUMP JUMPDEST POP JUMPDEST PUSH1 0x40 DUP1 MLOAD DUP5 DUP2 MSTORE PUSH1 0x20 DUP2 ADD DUP5 SWAP1 MSTORE SWAP1 DUP2 ADD DUP3 SWAP1 MSTORE PUSH1 0x1 PUSH1 0x1 PUSH1 0xA0 SHL SUB DUP6 AND SWAP1 PUSH32 0x505EA5F95AB2F1563B21D724DB1B6C59F3E8B8CA0169DD0D2DCD6C2B45371ECF SWAP1 PUSH1 0x60 ADD PUSH1 0x40 MLOAD DUP1 SWAP2 SUB SWAP1 LOG2 POP POP POP POP JUMP JUMPDEST PUSH2 0x9F2 PUSH32 0x0 PUSH3 0x15180 PUSH2 0xEAC JUMP JUMPDEST TIMESTAMP LT ISZERO DUP1 PUSH2 0xA28 JUMPI POP CALLER PUSH1 0x1 PUSH1 0x1 PUSH1 0xA0 SHL SUB PUSH32 0x0 AND EQ JUMPDEST PUSH2 0xA9A JUMPI PUSH1 0x40 MLOAD PUSH3 0x461BCD PUSH1 0xE5 SHL DUP2 MSTORE PUSH1 0x20 PUSH1 0x4 DUP3 ADD MSTORE PUSH1 0x3A PUSH1 0x24 DUP3 ADD MSTORE PUSH32 0x5175697A457363726F773A205175697A206E6F74206578706972656420616E64 PUSH1 0x44 DUP3 ADD MSTORE PUSH32 0x2063616C6C6572206E6F7420617574686F72697A656420626F74000000000000 PUSH1 0x64 DUP3 ADD MSTORE PUSH1 0x84 ADD PUSH2 0x4DC JUMP JUMPDEST PUSH1 0x1 SLOAD PUSH1 0xFF AND ISZERO PUSH2 0xAED JUMPI PUSH1 0x40 MLOAD PUSH3 0x461BCD PUSH1 0xE5 SHL DUP2 MSTORE PUSH1 0x20 PUSH1 0x4 DUP3 ADD MSTORE PUSH1 0x1E PUSH1 0x24 DUP3 ADD MSTORE PUSH32 0x5175697A457363726F773A205175697A20616C726561647920656E6465640000 PUSH1 0x44 DUP3 ADD MSTORE PUSH1 0x64 ADD PUSH2 0x4DC JUMP JUMPDEST PUSH1 0x1 DUP1 SLOAD PUSH1 0xFF NOT AND DUP2 OR SWAP1 SSTORE SELFBALANCE DUP1 ISZERO PUSH2 0xC3E JUMPI PUSH1 0x0 PUSH32 0x0 PUSH1 0x1 PUSH1 0x1 PUSH1 0xA0 SHL SUB AND DUP3 PUSH1 0x40 MLOAD PUSH1 0x0 PUSH1 0x40 MLOAD DUP1 DUP4 SUB DUP2 DUP6 DUP8 GAS CALL SWAP3 POP POP POP RETURNDATASIZE DUP1 PUSH1 0x0 DUP2 EQ PUSH2 0xB6D JUMPI PUSH1 0x40 MLOAD SWAP2 POP PUSH1 0x1F NOT PUSH1 0x3F RETURNDATASIZE ADD AND DUP3 ADD PUSH1 0x40 MSTORE RETURNDATASIZE DUP3 MSTORE RETURNDATASIZE PUSH1 0x0 PUSH1 0x20 DUP5 ADD RETURNDATACOPY PUSH2 0xB72 JUMP JUMPDEST PUSH1 0x60 SWAP2 POP JUMPDEST POP POP SWAP1 POP DUP1 PUSH2 0xBD9 JUMPI PUSH1 0x40 MLOAD PUSH3 0x461BCD PUSH1 0xE5 SHL DUP2 MSTORE PUSH1 0x20 PUSH1 0x4 DUP3 ADD MSTORE PUSH1 0x2D PUSH1 0x24 DUP3 ADD MSTORE PUSH32 0x5175697A457363726F773A204661696C656420746F2072657475726E2066756E PUSH1 0x44 DUP3 ADD MSTORE PUSH13 0x3239903A379031B932B0BA37B9 PUSH1 0x99 SHL PUSH1 0x64 DUP3 ADD MSTORE PUSH1 0x84 ADD PUSH2 0x4DC JUMP JUMPDEST PUSH32 0x0 PUSH1 0x1 PUSH1 0x1 PUSH1 0xA0 SHL SUB AND PUSH32 0xA040CA073376D39884E5322E13F5E38FE9DB9B46F46D474E7CFCFBDF2D617A9A DUP4 PUSH1 0x40 MLOAD PUSH2 0xC34 SWAP2 DUP2 MSTORE PUSH1 0x20 ADD SWAP1 JUMP JUMPDEST PUSH1 0x40 MLOAD DUP1 SWAP2 SUB SWAP1 LOG2 POP JUMPDEST PUSH32 0xA079FDBA1BC1AF068F704947986666FEB435D952A5DB81D4109E9E7D070EFBDB PUSH1 0x2 SLOAD PUSH1 0x0 SLOAD PUSH1 0x40 MLOAD PUSH2 0xC7C SWAP3 SWAP2 SWAP1 SWAP2 DUP3 MSTORE PUSH1 0x20 DUP3 ADD MSTORE PUSH1 0x40 ADD SWAP1 JUMP JUMPDEST PUSH1 0x40 MLOAD DUP1 SWAP2 SUB SWAP1 LOG1 POP JUMP JUMPDEST PUSH1 0x0 DUP1 PUSH1 0x0 DUP1 PUSH1 0x0 DUP1 PUSH1 0x0 PUSH1 0x2 SLOAD PUSH1 0x3 SLOAD PUSH1 0x4 SLOAD PUSH1 0x0 SLOAD SELFBALANCE PUSH32 0x0 PUSH3 0x15180 PUSH2 0xCCE SWAP2 SWAP1 PUSH2 0xEAC JUMP JUMPDEST PUSH1 0x1 SLOAD SWAP6 SWAP14 SWAP5 SWAP13 POP SWAP3 SWAP11 POP SWAP1 SWAP9 POP SWAP7 POP TIMESTAMP LT ISZERO SWAP5 POP PUSH1 0xFF SWAP1 SWAP2 AND SWAP3 POP SWAP1 POP JUMP JUMPDEST PUSH2 0xD1B PUSH1 0x40 MLOAD DUP1 PUSH1 0x80 ADD PUSH1 0x40 MSTORE DUP1 PUSH1 0x0 DUP2 MSTORE PUSH1 0x20 ADD PUSH1 0x0 DUP2 MSTORE PUSH1 0x20 ADD PUSH1 0x0 DUP2 MSTORE PUSH1 0x20 ADD PUSH1 0x0 ISZERO ISZERO DUP2 MSTORE POP SWAP1 JUMP JUMPDEST POP PUSH1 0x1 PUSH1 0x1 PUSH1 0xA0 SHL SUB AND PUSH1 0x0 SWAP1 DUP2 MSTORE PUSH1 0x6 PUSH1 0x20 SWAP1 DUP2 MSTORE PUSH1 0x40 SWAP2 DUP3 SWAP1 KECCAK256 DUP3 MLOAD PUSH1 0x80 DUP2 ADD DUP5 MSTORE DUP2 SLOAD DUP2 MSTORE PUSH1 0x1 DUP3 ADD SLOAD SWAP3 DUP2 ADD SWAP3 SWAP1 SWAP3 MSTORE PUSH1 0x2 DUP2 ADD SLOAD SWAP3 DUP3 ADD SWAP3 SWAP1 SWAP3 MSTORE PUSH1 0x3 SWAP1 SWAP2 ADD SLOAD PUSH1 0xFF AND ISZERO ISZERO PUSH1 0x60 DUP3 ADD MSTORE SWAP1 JUMP JUMPDEST PUSH1 0x0 DUP1 PUSH2 0xD9E PUSH32 0x0 PUSH3 0x15180 PUSH2 0xEAC JUMP JUMPDEST SWAP1 POP DUP1 TIMESTAMP LT PUSH2 0xDAF JUMPI PUSH1 0x0 SWAP2 POP POP SWAP1 JUMP JUMPDEST PUSH2 0xDB9 TIMESTAMP DUP3 PUSH2 0xEF5 JUMP JUMPDEST SWAP2 POP POP SWAP1 JUMP JUMPDEST PUSH1 0x20 DUP1 DUP3 MSTORE DUP3 MLOAD DUP3 DUP3 ADD DUP2 SWAP1 MSTORE PUSH1 0x0 SWAP2 SWAP1 DUP5 DUP3 ADD SWAP1 PUSH1 0x40 DUP6 ADD SWAP1 DUP5 JUMPDEST DUP2 DUP2 LT ISZERO PUSH2 0xE00 JUMPI DUP4 MLOAD PUSH1 0x1 PUSH1 0x1 PUSH1 0xA0 SHL SUB AND DUP4 MSTORE SWAP3 DUP5 ADD SWAP3 SWAP2 DUP5 ADD SWAP2 PUSH1 0x1 ADD PUSH2 0xDDB JUMP JUMPDEST POP SWAP1 SWAP7 SWAP6 POP POP POP POP POP POP JUMP JUMPDEST PUSH1 0x0 PUSH1 0x20 DUP3 DUP5 SUB SLT ISZERO PUSH2 0xE1E JUMPI PUSH1 0x0 DUP1 REVERT JUMPDEST POP CALLDATALOAD SWAP2 SWAP1 POP JUMP JUMPDEST DUP1 CALLDATALOAD PUSH1 0x1 PUSH1 0x1 PUSH1 0xA0 SHL SUB DUP2 AND DUP2 EQ PUSH2 0xE3C JUMPI PUSH1 0x0 DUP1 REVERT JUMPDEST SWAP2 SWAP1 POP JUMP JUMPDEST PUSH1 0x0 DUP1 PUSH1 0x0 PUSH1 0x60 DUP5 DUP7 SUB SLT ISZERO PUSH2 0xE56 JUMPI PUSH1 0x0 DUP1 REVERT JUMPDEST PUSH2 0xE5F DUP5 PUSH2 0xE25 JUMP JUMPDEST SWAP6 PUSH1 0x20 DUP6 ADD CALLDATALOAD SWAP6 POP PUSH1 0x40 SWAP1 SWAP5 ADD CALLDATALOAD SWAP4 SWAP3 POP POP POP JUMP JUMPDEST PUSH1 0x0 PUSH1 0x20 DUP3 DUP5 SUB SLT ISZERO PUSH2 0xE86 JUMPI PUSH1 0x0 DUP1 REVERT JUMPDEST PUSH2 0xE8F DUP3 PUSH2 0xE25 JUMP JUMPDEST SWAP4 SWAP3 POP POP POP JUMP JUMPDEST PUSH4 0x4E487B71 PUSH1 0xE0 SHL PUSH1 0x0 MSTORE PUSH1 0x11 PUSH1 0x4 MSTORE PUSH1 0x24 PUSH1 0x0 REVERT JUMPDEST DUP1 DUP3 ADD DUP1 DUP3 GT ISZERO PUSH2 0xEBF JUMPI PUSH2 0xEBF PUSH2 0xE96 JUMP JUMPDEST SWAP3 SWAP2 POP POP JUMP JUMPDEST DUP1 DUP3 MUL DUP2 ISZERO DUP3 DUP3 DIV DUP5 EQ OR PUSH2 0xEBF JUMPI PUSH2 0xEBF PUSH2 0xE96 JUMP JUMPDEST PUSH1 0x0 PUSH1 0x1 DUP3 ADD PUSH2 0xEEE JUMPI PUSH2 0xEEE PUSH2 0xE96 JUMP JUMPDEST POP PUSH1 0x1 ADD SWAP1 JUMP JUMPDEST DUP2 DUP2 SUB DUP2 DUP2 GT ISZERO PUSH2 0xEBF JUMPI PUSH2 0xEBF PUSH2 0xE96 JUMP INVALID LOG2 PUSH5 0x6970667358 0x22 SLT KECCAK256 0x5C PUSH22 0xDFF544B30BAA8BA9A980156C21D90BFFA1921B58F831 0x1E PUSH4 0x30F3888B 0x4B 0xE4 PUSH5 0x736F6C6343 STOP ADDMOD AND STOP CALLER PREVRANDAO PUSH6 0x706C6F797320 MLOAD PUSH22 0x697A457363726F7720636F6E74726163747320666F72 KECCAK256 PREVRANDAO PUSH10 0x73636F7264207175697A KECCAK256 PUSH8 0x616D657320776974 PUSH9 0x20626F742D636F6E74 PUSH19 0x6F6C6C656420726573756C74207265636F7264 PUSH10 0x6E67A264697066735822 SLT KECCAK256 0xF PUSH1 0xE2 0x27 0x29 0x1E 0xC5 PUSH27 0x9B8C83C7CC9F130F434C8E5A7AEF0FFA9A959C50899CC04664736F PUSH13 0x63430008160033000000000000 "},"methodIdentifiers":{"DEPLOYMENT_FEE()":"a8f32251","VERSION()":"ffa1ad74","authorizedBot()":"52bcaa13","decodeDeploymentParams(bytes)":"1aa7ec34","deployContract(address,bytes)":"2673ce9f","encodeDeploymentParams(uint256,uint256)":"907fd3c6","getAccumulatedFees()":"5df45a37","getAuthorizedBot()":"080885d6","getDeploymentFee(bytes)":"d298dbe2","getHandlerInfo()":"7ff08934","withdrawFees()":"476343ee"}}}}}