{"contracts/src/QuizEscrow.sol":{"QuizEscrow":{"abi":[{"inputs":[{"internalType":"address","name":"_creator","type":"address"},{"internalType":"address","name":"_authorizedBot","type":"address"},{"internalType":"uint256","name":"_correctReward","type":"uint256"},{"internalType":"uint256","name":"_incorrectReward","type":"uint256"}],"stateMutability":"payable","type":"constructor"},{"anonymous":false,"inputs":[{"indexed":true,"internalType":"address","name":"creator","type":"address"},{"indexed":true,"internalType":"address","name":"authorizedBot","type":"address"},{"indexed":false,"internalType":"uint256","name":"fundingAmount","type":"uint256"},{"indexed":false,"internalType":"uint256","name":"correctReward","type":"uint256"},{"indexed":false,"internalType":"uint256","name":"incorrectReward","type":"uint256"}],"name":"QuizCreated","type":"event"},{"anonymous":false,"inputs":[{"indexed":false,"internalType":"uint256","name":"totalParticipants","type":"uint256"},{"indexed":false,"internalType":"uint256","name":"totalPaidOut","type":"uint256"}],"name":"QuizEnded","type":"event"},{"anonymous":false,"inputs":[{"indexed":true,"internalType":"address","name":"participant","type":"address"},{"indexed":false,"internalType":"uint256","name":"correctCount","type":"uint256"},{"indexed":false,"internalType":"uint256","name":"incorrectCount","type":"uint256"},{"indexed":false,"internalType":"uint256","name":"payout","type":"uint256"}],"name":"QuizResultRecorded","type":"event"},{"anonymous":false,"inputs":[{"indexed":true,"internalType":"address","name":"creator","type":"address"},{"indexed":false,"internalType":"uint256","name":"amount","type":"uint256"}],"name":"UnclaimedFundsReturned","type":"event"},{"inputs":[],"name":"authorizedBot","outputs":[{"internalType":"address","name":"","type":"address"}],"stateMutability":"view","type":"function"},{"inputs":[],"name":"correctReward","outputs":[{"internalType":"uint256","name":"","type":"uint256"}],"stateMutability":"view","type":"function"},{"inputs":[],"name":"creationTime","outputs":[{"internalType":"uint256","name":"","type":"uint256"}],"stateMutability":"view","type":"function"},{"inputs":[],"name":"creator","outputs":[{"internalType":"address","name":"","type":"address"}],"stateMutability":"view","type":"function"},{"inputs":[],"name":"endQuiz","outputs":[],"stateMutability":"nonpayable","type":"function"},{"inputs":[],"name":"fundingAmount","outputs":[{"internalType":"uint256","name":"","type":"uint256"}],"stateMutability":"view","type":"function"},{"inputs":[],"name":"getAllParticipants","outputs":[{"internalType":"address[]","name":"participants","type":"address[]"}],"stateMutability":"view","type":"function"},{"inputs":[],"name":"getBalance","outputs":[{"internalType":"uint256","name":"balance","type":"uint256"}],"stateMutability":"view","type":"function"},{"inputs":[{"internalType":"address","name":"participant","type":"address"}],"name":"getParticipantResult","outputs":[{"components":[{"internalType":"uint256","name":"correctCount","type":"uint256"},{"internalType":"uint256","name":"incorrectCount","type":"uint256"},{"internalType":"uint256","name":"totalPayout","type":"uint256"},{"internalType":"bool","name":"hasParticipated","type":"bool"}],"internalType":"struct QuizEscrow.ParticipantResult","name":"result","type":"tuple"}],"stateMutability":"view","type":"function"},{"inputs":[],"name":"getQuizStats","outputs":[{"internalType":"uint256","name":"_totalParticipants","type":"uint256"},{"internalType":"uint256","name":"_totalCorrectAnswers","type":"uint256"},{"internalType":"uint256","name":"_totalIncorrectAnswers","type":"uint256"},{"internalType":"uint256","name":"_totalPaidOut","type":"uint256"},{"internalType":"uint256","name":"_remainingBalance","type":"uint256"},{"internalType":"bool","name":"_isExpired","type":"bool"},{"internalType":"bool","name":"_isEnded","type":"bool"}],"stateMutability":"view","type":"function"},{"inputs":[],"name":"getRemainingTime","outputs":[{"internalType":"uint256","name":"remainingTime","type":"uint256"}],"stateMutability":"view","type":"function"},{"inputs":[],"name":"incorrectReward","outputs":[{"internalType":"uint256","name":"","type":"uint256"}],"stateMutability":"view","type":"function"},{"inputs":[],"name":"isEnded","outputs":[{"internalType":"bool","name":"","type":"bool"}],"stateMutability":"view","type":"function"},{"inputs":[{"internalType":"address","name":"","type":"address"}],"name":"participantResults","outputs":[{"internalType":"uint256","name":"correctCount","type":"uint256"},{"internalType":"uint256","name":"incorrectCount","type":"uint256"},{"internalType":"uint256","name":"totalPayout","type":"uint256"},{"internalType":"bool","name":"hasParticipated","type":"bool"}],"stateMutability":"view","type":"function"},{"inputs":[{"internalType":"uint256","name":"","type":"uint256"}],"name":"participantsList","outputs":[{"internalType":"address","name":"","type":"address"}],"stateMutability":"view","type":"function"},{"inputs":[{"internalType":"address","name":"participant","type":"address"},{"internalType":"uint256","name":"correctCount","type":"uint256"},{"internalType":"uint256","name":"incorrectCount","type":"uint256"}],"name":"recordQuizResult","outputs":[],"stateMutability":"nonpayable","type":"function"},{"inputs":[],"name":"totalCorrectAnswers","outputs":[{"internalType":"uint256","name":"","type":"uint256"}],"stateMutability":"view","type":"function"},{"inputs":[],"name":"totalIncorrectAnswers","outputs":[{"internalType":"uint256","name":"","type":"uint256"}],"stateMutability":"view","type":"function"},{"inputs":[],"name":"totalPaidOut","outputs":[{"internalType":"uint256","name":"","type":"uint256"}],"stateMutability":"view","type":"function"},{"inputs":[],"name":"totalParticipants","outputs":[{"internalType":"uint256","name":"","type":"uint256"}],"stateMutability":"view","type":"function"}],"evm":{"bytecode":{"linkReferences":{},"object":"6101406040526040516200125d3803806200125d833981016040819052620000279162000241565b6001600160a01b0384166200008f5760405162461bcd60e51b815260206004820152602360248201527f5175697a457363726f773a20496e76616c69642063726561746f72206164647260448201526265737360e81b60648201526084015b60405180910390fd5b6001600160a01b038316620000e75760405162461bcd60e51b815260206004820152601f60248201527f5175697a457363726f773a20496e76616c696420626f74206164647265737300604482015260640162000086565b60003411620001395760405162461bcd60e51b815260206004820181905260248201527f5175697a457363726f773a204d7573742070726f766964652066756e64696e67604482015260640162000086565b6000821180620001495750600081115b620001a95760405162461bcd60e51b815260206004820152602960248201527f5175697a457363726f773a204d7573742070726f76696465206e6f6e2d7a65726044820152686f207265776172647360b81b606482015260840162000086565b6001600160a01b03848116608081905290841660a08190524260c0523460e0819052610100859052610120849052604080519182526020820186905281018490529091907f7827af77e7b6672abd014a70dd2023f4fe7c0e5f4c029a83295cbf193a8f8ea09060600160405180910390a35050505062000289565b80516001600160a01b03811681146200023c57600080fd5b919050565b600080600080608085870312156200025857600080fd5b620002638562000224565b9350620002736020860162000224565b6040860151606090960151949790965092505050565b60805160a05160c05160e0516101005161012051610f3e6200031f60003960008181610233015261070a01526000818161025a01526107340152600061017a0152600081816102f10152818161053d015281816109ca01528181610ca10152610d760152600081816101e6015281816104540152610a0601526000818161013601528181610b040152610bdb0152610f3e6000f3fe608060405234801561001057600080fd5b506004361061012c5760003560e01c80636381eea6116100ad578063d235659311610071578063d2356593146102e3578063d8270dce146102ec578063dc1892e614610313578063e41c3ce41461036d578063efb98bcf146103b557600080fd5b80636381eea61461022e5780637b42720414610255578063a26dbf261461027c578063a4fd6f5614610285578063c7f43d58146102a257600080fd5b80632820aece116100f45780632820aece146101ce57806352bcaa13146101e157806355acbb781461020857806355e08c2b146102115780635b0700a81461022657600080fd5b806302d05d3f1461013157806304a79c971461017557806312065fe0146101aa5780631357e1dc146101b0578063195ec9ee146101b9575b600080fd5b6101587f000000000000000000000000000000000000000000000000000000000000000081565b6040516001600160a01b0390911681526020015b60405180910390f35b61019c7f000000000000000000000000000000000000000000000000000000000000000081565b60405190815260200161016c565b4761019c565b61019c60005481565b6101c16103bd565b60405161016c9190610dbf565b6101586101dc366004610e0c565b61041f565b6101587f000000000000000000000000000000000000000000000000000000000000000081565b61019c60045481565b61022461021f366004610e41565b610449565b005b6102246109c5565b61019c7f000000000000000000000000000000000000000000000000000000000000000081565b61019c7f000000000000000000000000000000000000000000000000000000000000000081565b61019c60025481565b6001546102929060ff1681565b604051901515815260200161016c565b6102aa610c87565b6040805197885260208801969096529486019390935260608501919091526080840152151560a0830152151560c082015260e00161016c565b61019c60035481565b61019c7f000000000000000000000000000000000000000000000000000000000000000081565b61034b610321366004610e74565b60066020526000908152604090208054600182015460028301546003909301549192909160ff1684565b604080519485526020850193909352918301521515606082015260800161016c565b61038061037b366004610e74565b610cee565b60405161016c919081518152602080830151908201526040808301519082015260609182015115159181019190915260800190565b61019c610d6e565b6060600580548060200260200160405190810160405280929190818152602001828054801561041557602002820191906000526020600020905b81546001600160a01b031681526001909101906020018083116103f7575b5050505050905090565b6005818154811061042f57600080fd5b6000918252602090912001546001600160a01b0316905081565b336001600160a01b037f000000000000000000000000000000000000000000000000000000000000000016146104e55760405162461bcd60e51b815260206004820152603660248201527f5175697a457363726f773a204f6e6c7920617574686f72697a656420626f742060448201527531b0b71031b0b636103a3434b990333ab731ba34b7b760511b60648201526084015b60405180910390fd5b60015460ff16156105385760405162461bcd60e51b815260206004820152601a60248201527f5175697a457363726f773a205175697a2068617320656e64656400000000000060448201526064016104dc565b6105657f000000000000000000000000000000000000000000000000000000000000000062015180610eac565b42106105b35760405162461bcd60e51b815260206004820152601c60248201527f5175697a457363726f773a205175697a2068617320657870697265640000000060448201526064016104dc565b6001600160a01b0383166106195760405162461bcd60e51b815260206004820152602760248201527f5175697a457363726f773a20496e76616c6964207061727469636970616e74206044820152666164647265737360c81b60648201526084016104dc565b6001600160a01b03831660009081526006602052604090206003015460ff16156106965760405162461bcd60e51b815260206004820152602860248201527f5175697a457363726f773a205061727469636970616e7420616c7265616479206044820152671c9958dbdc99195960c21b60648201526084016104dc565b60008211806106a55750600081115b6107035760405162461bcd60e51b815260206004820152602960248201527f5175697a457363726f773a204d7573742068617665206174206c65617374206f60448201526837329030b739bbb2b960b91b60648201526084016104dc565b600061072f7f000000000000000000000000000000000000000000000000000000000000000083610ec5565b6107597f000000000000000000000000000000000000000000000000000000000000000085610ec5565b6107639190610eac565b9050478111156107c75760405162461bcd60e51b815260206004820152602960248201527f5175697a457363726f773a20496e73756666696369656e742066756e647320666044820152681bdc881c185e5bdd5d60ba1b60648201526084016104dc565b6040805160808101825284815260208082018581528284018581526001606085018181526001600160a01b038b166000818152600690965296852095518655925185820155905160028086019190915591516003909401805460ff19169415159490941790935560058054938401815582527f036b6384b5eca791c62761152d0c79bb0604c104a5fb6f4eb0703f3154bb3db090920180546001600160a01b03191690931790925580549161087b83610edc565b919050555082600360008282546108929190610eac565b9250508190555081600460008282546108ab9190610eac565b92505081905550806000808282546108c39190610eac565b90915550508015610973576000846001600160a01b03168260405160006040518083038185875af1925050503d806000811461091b576040519150601f19603f3d011682016040523d82523d6000602084013e610920565b606091505b50509050806109715760405162461bcd60e51b815260206004820152601a60248201527f5175697a457363726f773a205061796d656e74206661696c656400000000000060448201526064016104dc565b505b60408051848152602081018490529081018290526001600160a01b038516907f505ea5f95ab2f1563b21d724db1b6c59f3e8b8ca0169dd0d2dcd6c2b45371ecf9060600160405180910390a250505050565b6109f27f000000000000000000000000000000000000000000000000000000000000000062015180610eac565b42101580610a285750336001600160a01b037f000000000000000000000000000000000000000000000000000000000000000016145b610a9a5760405162461bcd60e51b815260206004820152603a60248201527f5175697a457363726f773a205175697a206e6f74206578706972656420616e6460448201527f2063616c6c6572206e6f7420617574686f72697a656420626f7400000000000060648201526084016104dc565b60015460ff1615610aed5760405162461bcd60e51b815260206004820152601e60248201527f5175697a457363726f773a205175697a20616c726561647920656e646564000060448201526064016104dc565b6001805460ff191681179055478015610c3e5760007f00000000000000000000000000000000000000000000000000000000000000006001600160a01b03168260405160006040518083038185875af1925050503d8060008114610b6d576040519150601f19603f3d011682016040523d82523d6000602084013e610b72565b606091505b5050905080610bd95760405162461bcd60e51b815260206004820152602d60248201527f5175697a457363726f773a204661696c656420746f2072657475726e2066756e60448201526c3239903a379031b932b0ba37b960991b60648201526084016104dc565b7f00000000000000000000000000000000000000000000000000000000000000006001600160a01b03167fa040ca073376d39884e5322e13f5e38fe9db9b46f46d474e7cfcfbdf2d617a9a83604051610c3491815260200190565b60405180910390a2505b7fa079fdba1bc1af068f704947986666feb435d952a5db81d4109e9e7d070efbdb600254600054604051610c7c929190918252602082015260400190565b60405180910390a150565b6000806000806000806000600254600354600454600054477f000000000000000000000000000000000000000000000000000000000000000062015180610cce9190610eac565b600154959d949c50929a509098509650421015945060ff90911692509050565b610d1b60405180608001604052806000815260200160008152602001600081526020016000151581525090565b506001600160a01b031660009081526006602090815260409182902082516080810184528154815260018201549281019290925260028101549282019290925260039091015460ff161515606082015290565b600080610d9e7f000000000000000000000000000000000000000000000000000000000000000062015180610eac565b9050804210610daf57600091505090565b610db94282610ef5565b91505090565b6020808252825182820181905260009190848201906040850190845b81811015610e005783516001600160a01b031683529284019291840191600101610ddb565b50909695505050505050565b600060208284031215610e1e57600080fd5b5035919050565b80356001600160a01b0381168114610e3c57600080fd5b919050565b600080600060608486031215610e5657600080fd5b610e5f84610e25565b95602085013595506040909401359392505050565b600060208284031215610e8657600080fd5b610e8f82610e25565b9392505050565b634e487b7160e01b600052601160045260246000fd5b80820180821115610ebf57610ebf610e96565b92915050565b8082028115828204841417610ebf57610ebf610e96565b600060018201610eee57610eee610e96565b5060010190565b81810381811115610ebf57610ebf610e9656fea26469706673582212205c75dff544b30baa8ba9a980156c21d90bffa1921b58f8311e6330f3888b4be464736f6c63430008160033","opcodes":"PUSH2 0x140 PUSH1 0x40 MSTORE PUSH1 0x40 MLOAD PUSH3 0x125D CODESIZE SUB DUP1 PUSH3 0x125D DUP4 CODECOPY DUP2 ADD PUSH1 0x40 DUP2 SWAP1 MSTORE PUSH3 0x27 SWAP2 PUSH3 0x241 JUMP JUMPDEST PUSH1 0x1 PUSH1 0x1 PUSH1 0xA0 SHL SUB DUP5 AND PUSH3 0x8F JUMPI PUSH1 0x40 MLOAD PUSH3 0x461BCD PUSH1 0xE5 SHL DUP2 MSTORE PUSH1 0x20 PUSH1 0x4 DUP3 ADD MSTORE PUSH1 0x23 PUSH1 0x24 DUP3 ADD MSTORE PUSH32 0x5175697A457363726F773A20496E76616C69642063726561746F722061646472 PUSH1 0x44 DUP3 ADD MSTORE PUSH3 0x657373 PUSH1 0xE8 SHL PUSH1 0x64 DUP3 ADD MSTORE PUSH1 0x84 ADD JUMPDEST PUSH1 0x40 MLOAD DUP1 SWAP2 SUB SWAP1 REVERT JUMPDEST PUSH1 0x1 PUSH1 0x1 PUSH1 0xA0 SHL SUB DUP4 AND PUSH3 0xE7 JUMPI PUSH1 0x40 MLOAD PUSH3 0x461BCD PUSH1 0xE5 SHL DUP2 MSTORE PUSH1 0x20 PUSH1 0x4 DUP3 ADD MSTORE PUSH1 0x1F PUSH1 0x24 DUP3 ADD MSTORE PUSH32 0x5175697A457363726F773A20496E76616C696420626F74206164647265737300 PUSH1 0x44 DUP3 ADD MSTORE PUSH1 0x64 ADD PUSH3 0x86 JUMP JUMPDEST PUSH1 0x0 CALLVALUE GT PUSH3 0x139 JUMPI PUSH1 0x40 MLOAD PUSH3 0x461BCD PUSH1 0xE5 SHL DUP2 MSTORE PUSH1 0x20 PUSH1 0x4 DUP3 ADD DUP2 SWAP1 MSTORE PUSH1 0x24 DUP3 ADD MSTORE PUSH32 0x5175697A457363726F773A204D7573742070726F766964652066756E64696E67 PUSH1 0x44 DUP3 ADD MSTORE PUSH1 0x64 ADD PUSH3 0x86 JUMP JUMPDEST PUSH1 0x0 DUP3 GT DUP1 PUSH3 0x149 JUMPI POP PUSH1 0x0 DUP2 GT JUMPDEST PUSH3 0x1A9 JUMPI PUSH1 0x40 MLOAD PUSH3 0x461BCD PUSH1 0xE5 SHL DUP2 MSTORE PUSH1 0x20 PUSH1 0x4 DUP3 ADD MSTORE PUSH1 0x29 PUSH1 0x24 DUP3 ADD MSTORE PUSH32 0x5175697A457363726F773A204D7573742070726F76696465206E6F6E2D7A6572 PUSH1 0x44 DUP3 ADD MSTORE PUSH9 0x6F2072657761726473 PUSH1 0xB8 SHL PUSH1 0x64 DUP3 ADD MSTORE PUSH1 0x84 ADD PUSH3 0x86 JUMP JUMPDEST PUSH1 0x1 PUSH1 0x1 PUSH1 0xA0 SHL SUB DUP5 DUP2 AND PUSH1 0x80 DUP2 SWAP1 MSTORE SWAP1 DUP5 AND PUSH1 0xA0 DUP2 SWAP1 MSTORE TIMESTAMP PUSH1 0xC0 MSTORE CALLVALUE PUSH1 0xE0 DUP2 SWAP1 MSTORE PUSH2 0x100 DUP6 SWAP1 MSTORE PUSH2 0x120 DUP5 SWAP1 MSTORE PUSH1 0x40 DUP1 MLOAD SWAP2 DUP3 MSTORE PUSH1 0x20 DUP3 ADD DUP7 SWAP1 MSTORE DUP2 ADD DUP5 SWAP1 MSTORE SWAP1 SWAP2 SWAP1 PUSH32 0x7827AF77E7B6672ABD014A70DD2023F4FE7C0E5F4C029A83295CBF193A8F8EA0 SWAP1 PUSH1 0x60 ADD PUSH1 0x40 MLOAD DUP1 SWAP2 SUB SWAP1 LOG3 POP POP POP POP PUSH3 0x289 JUMP JUMPDEST DUP1 MLOAD PUSH1 0x1 PUSH1 0x1 PUSH1 0xA0 SHL SUB DUP2 AND DUP2 EQ PUSH3 0x23C JUMPI PUSH1 0x0 DUP1 REVERT JUMPDEST SWAP2 SWAP1 POP JUMP JUMPDEST PUSH1 0x0 DUP1 PUSH1 0x0 DUP1 PUSH1 0x80 DUP6 DUP8 SUB SLT ISZERO PUSH3 0x258 JUMPI PUSH1 0x0 DUP1 REVERT JUMPDEST PUSH3 0x263 DUP6 PUSH3 0x224 JUMP JUMPDEST SWAP4 POP PUSH3 0x273 PUSH1 0x20 DUP7 ADD PUSH3 0x224 JUMP JUMPDEST PUSH1 0x40 DUP7 ADD MLOAD PUSH1 0x60 SWAP1 SWAP7 ADD MLOAD SWAP5 SWAP8 SWAP1 SWAP7 POP SWAP3 POP POP POP JUMP JUMPDEST PUSH1 0x80 MLOAD PUSH1 0xA0 MLOAD PUSH1 0xC0 MLOAD PUSH1 0xE0 MLOAD PUSH2 0x100 MLOAD PUSH2 0x120 MLOAD PUSH2 0xF3E PUSH3 0x31F PUSH1 0x0 CODECOPY PUSH1 0x0 DUP2 DUP2 PUSH2 0x233 ADD MSTORE PUSH2 0x70A ADD MSTORE PUSH1 0x0 DUP2 DUP2 PUSH2 0x25A ADD MSTORE PUSH2 0x734 ADD MSTORE PUSH1 0x0 PUSH2 0x17A ADD MSTORE PUSH1 0x0 DUP2 DUP2 PUSH2 0x2F1 ADD MSTORE DUP2 DUP2 PUSH2 0x53D ADD MSTORE DUP2 DUP2 PUSH2 0x9CA ADD MSTORE DUP2 DUP2 PUSH2 0xCA1 ADD MSTORE PUSH2 0xD76 ADD MSTORE PUSH1 0x0 DUP2 DUP2 PUSH2 0x1E6 ADD MSTORE DUP2 DUP2 PUSH2 0x454 ADD MSTORE PUSH2 0xA06 ADD MSTORE PUSH1 0x0 DUP2 DUP2 PUSH2 0x136 ADD MSTORE DUP2 DUP2 PUSH2 0xB04 ADD MSTORE PUSH2 0xBDB ADD MSTORE PUSH2 0xF3E PUSH1 0x0 RETURN INVALID PUSH1 0x80 PUSH1 0x40 MSTORE CALLVALUE DUP1 ISZERO PUSH2 0x10 JUMPI PUSH1 0x0 DUP1 REVERT JUMPDEST POP PUSH1 0x4 CALLDATASIZE LT PUSH2 0x12C JUMPI PUSH1 0x0 CALLDATALOAD PUSH1 0xE0 SHR DUP1 PUSH4 0x6381EEA6 GT PUSH2 0xAD JUMPI DUP1 PUSH4 0xD2356593 GT PUSH2 0x71 JUMPI DUP1 PUSH4 0xD2356593 EQ PUSH2 0x2E3 JUMPI DUP1 PUSH4 0xD8270DCE EQ PUSH2 0x2EC JUMPI DUP1 PUSH4 0xDC1892E6 EQ PUSH2 0x313 JUMPI DUP1 PUSH4 0xE41C3CE4 EQ PUSH2 0x36D JUMPI DUP1 PUSH4 0xEFB98BCF EQ PUSH2 0x3B5 JUMPI PUSH1 0x0 DUP1 REVERT JUMPDEST DUP1 PUSH4 0x6381EEA6 EQ PUSH2 0x22E JUMPI DUP1 PUSH4 0x7B427204 EQ PUSH2 0x255 JUMPI DUP1 PUSH4 0xA26DBF26 EQ PUSH2 0x27C JUMPI DUP1 PUSH4 0xA4FD6F56 EQ PUSH2 0x285 JUMPI DUP1 PUSH4 0xC7F43D58 EQ PUSH2 0x2A2 JUMPI PUSH1 0x0 DUP1 REVERT JUMPDEST DUP1 PUSH4 0x2820AECE GT PUSH2 0xF4 JUMPI DUP1 PUSH4 0x2820AECE EQ PUSH2 0x1CE JUMPI DUP1 PUSH4 0x52BCAA13 EQ PUSH2 0x1E1 JUMPI DUP1 PUSH4 0x55ACBB78 EQ PUSH2 0x208 JUMPI DUP1 PUSH4 0x55E08C2B EQ PUSH2 0x211 JUMPI DUP1 PUSH4 0x5B0700A8 EQ PUSH2 0x226 JUMPI PUSH1 0x0 DUP1 REVERT JUMPDEST DUP1 PUSH4 0x2D05D3F EQ PUSH2 0x131 JUMPI DUP1 PUSH4 0x4A79C97 EQ PUSH2 0x175 JUMPI DUP1 PUSH4 0x12065FE0 EQ PUSH2 0x1AA JUMPI DUP1 PUSH4 0x1357E1DC EQ PUSH2 0x1B0 JUMPI DUP1 PUSH4 0x195EC9EE EQ PUSH2 0x1B9 JUMPI JUMPDEST PUSH1 0x0 DUP1 REVERT JUMPDEST PUSH2 0x158 PUSH32 0x0 DUP2 JUMP JUMPDEST PUSH1 0x40 MLOAD PUSH1 0x1 PUSH1 0x1 PUSH1 0xA0 SHL SUB SWAP1 SWAP2 AND DUP2 MSTORE PUSH1 0x20 ADD JUMPDEST PUSH1 0x40 MLOAD DUP1 SWAP2 SUB SWAP1 RETURN JUMPDEST PUSH2 0x19C PUSH32 0x0 DUP2 JUMP JUMPDEST PUSH1 0x40 MLOAD SWAP1 DUP2 MSTORE PUSH1 0x20 ADD PUSH2 0x16C JUMP JUMPDEST SELFBALANCE PUSH2 0x19C JUMP JUMPDEST PUSH2 0x19C PUSH1 0x0 SLOAD DUP2 JUMP JUMPDEST PUSH2 0x1C1 PUSH2 0x3BD JUMP JUMPDEST PUSH1 0x40 MLOAD PUSH2 0x16C SWAP2 SWAP1 PUSH2 0xDBF JUMP JUMPDEST PUSH2 0x158 PUSH2 0x1DC CALLDATASIZE PUSH1 0x4 PUSH2 0xE0C JUMP JUMPDEST PUSH2 0x41F JUMP JUMPDEST PUSH2 0x158 PUSH32 0x0 DUP2 JUMP JUMPDEST PUSH2 0x19C PUSH1 0x4 SLOAD DUP2 JUMP JUMPDEST PUSH2 0x224 PUSH2 0x21F CALLDATASIZE PUSH1 0x4 PUSH2 0xE41 JUMP JUMPDEST PUSH2 0x449 JUMP JUMPDEST STOP JUMPDEST PUSH2 0x224 PUSH2 0x9C5 JUMP JUMPDEST PUSH2 0x19C PUSH32 0x0 DUP2 JUMP JUMPDEST PUSH2 0x19C PUSH32 0x0 DUP2 JUMP JUMPDEST PUSH2 0x19C PUSH1 0x2 SLOAD DUP2 JUMP JUMPDEST PUSH1 0x1 SLOAD PUSH2 0x292 SWAP1 PUSH1 0xFF AND DUP2 JUMP JUMPDEST PUSH1 0x40 MLOAD SWAP1 ISZERO ISZERO DUP2 MSTORE PUSH1 0x20 ADD PUSH2 0x16C JUMP JUMPDEST PUSH2 0x2AA PUSH2 0xC87 JUMP JUMPDEST PUSH1 0x40 DUP1 MLOAD SWAP8 DUP9 MSTORE PUSH1 0x20 DUP9 ADD SWAP7 SWAP1 SWAP7 MSTORE SWAP5 DUP7 ADD SWAP4 SWAP1 SWAP4 MSTORE PUSH1 0x60 DUP6 ADD SWAP2 SWAP1 SWAP2 MSTORE PUSH1 0x80 DUP5 ADD MSTORE ISZERO ISZERO PUSH1 0xA0 DUP4 ADD MSTORE ISZERO ISZERO PUSH1 0xC0 DUP3 ADD MSTORE PUSH1 0xE0 ADD PUSH2 0x16C JUMP JUMPDEST PUSH2 0x19C PUSH1 0x3 SLOAD DUP2 JUMP JUMPDEST PUSH2 0x19C PUSH32 0x0 DUP2 JUMP JUMPDEST PUSH2 0x34B PUSH2 0x321 CALLDATASIZE PUSH1 0x4 PUSH2 0xE74 JUMP JUMPDEST PUSH1 0x6 PUSH1 0x20 MSTORE PUSH1 0x0 SWAP1 DUP2 MSTORE PUSH1 0x40 SWAP1 KECCAK256 DUP1 SLOAD PUSH1 0x1 DUP3 ADD SLOAD PUSH1 0x2 DUP4 ADD SLOAD PUSH1 0x3 SWAP1 SWAP4 ADD SLOAD SWAP2 SWAP3 SWAP1 SWAP2 PUSH1 0xFF AND DUP5 JUMP JUMPDEST PUSH1 0x40 DUP1 MLOAD SWAP5 DUP6 MSTORE PUSH1 0x20 DUP6 ADD SWAP4 SWAP1 SWAP4 MSTORE SWAP2 DUP4 ADD MSTORE ISZERO ISZERO PUSH1 0x60 DUP3 ADD MSTORE PUSH1 0x80 ADD PUSH2 0x16C JUMP JUMPDEST PUSH2 0x380 PUSH2 0x37B CALLDATASIZE PUSH1 0x4 PUSH2 0xE74 JUMP JUMPDEST PUSH2 0xCEE JUMP JUMPDEST PUSH1 0x40 MLOAD PUSH2 0x16C SWAP2 SWAP1 DUP2 MLOAD DUP2 MSTORE PUSH1 0x20 DUP1 DUP4 ADD MLOAD SWAP1 DUP3 ADD MSTORE PUSH1 0x40 DUP1 DUP4 ADD MLOAD SWAP1 DUP3 ADD MSTORE PUSH1 0x60 SWAP2 DUP3 ADD MLOAD ISZERO ISZERO SWAP2 DUP2 ADD SWAP2 SWAP1 SWAP2 MSTORE PUSH1 0x80 ADD SWAP1 JUMP JUMPDEST PUSH2 0x19C PUSH2 0xD6E JUMP JUMPDEST PUSH1 0x60 PUSH1 0x5 DUP1 SLOAD DUP1 PUSH1 0x20 MUL PUSH1 0x20 ADD PUSH1 0x40 MLOAD SWAP1 DUP2 ADD PUSH1 0x40 MSTORE DUP1 SWAP3 SWAP2 SWAP1 DUP2 DUP2 MSTORE PUSH1 0x20 ADD DUP3 DUP1 SLOAD DUP1 ISZERO PUSH2 0x415 JUMPI PUSH1 0x20 MUL DUP3 ADD SWAP2 SWAP1 PUSH1 0x0 MSTORE PUSH1 0x20 PUSH1 0x0 KECCAK256 SWAP1 JUMPDEST DUP2 SLOAD PUSH1 0x1 PUSH1 0x1 PUSH1 0xA0 SHL SUB AND DUP2 MSTORE PUSH1 0x1 SWAP1 SWAP2 ADD SWAP1 PUSH1 0x20 ADD DUP1 DUP4 GT PUSH2 0x3F7 JUMPI JUMPDEST POP POP POP POP POP SWAP1 POP SWAP1 JUMP JUMPDEST PUSH1 0x5 DUP2 DUP2 SLOAD DUP2 LT PUSH2 0x42F JUMPI PUSH1 0x0 DUP1 REVERT JUMPDEST PUSH1 0x0 SWAP2 DUP3 MSTORE PUSH1 0x20 SWAP1 SWAP2 KECCAK256 ADD SLOAD PUSH1 0x1 PUSH1 0x1 PUSH1 0xA0 SHL SUB AND SWAP1 POP DUP2 JUMP JUMPDEST CALLER PUSH1 0x1 PUSH1 0x1 PUSH1 0xA0 SHL SUB PUSH32 0x0 AND EQ PUSH2 0x4E5 JUMPI PUSH1 0x40 MLOAD PUSH3 0x461BCD PUSH1 0xE5 SHL DUP2 MSTORE PUSH1 0x20 PUSH1 0x4 DUP3 ADD MSTORE PUSH1 0x36 PUSH1 0x24 DUP3 ADD MSTORE PUSH32 0x5175697A457363726F773A204F6E6C7920617574686F72697A656420626F7420 PUSH1 0x44 DUP3 ADD MSTORE PUSH22 0x31B0B71031B0B636103A3434B990333AB731BA34B7B7 PUSH1 0x51 SHL PUSH1 0x64 DUP3 ADD MSTORE PUSH1 0x84 ADD JUMPDEST PUSH1 0x40 MLOAD DUP1 SWAP2 SUB SWAP1 REVERT JUMPDEST PUSH1 0x1 SLOAD PUSH1 0xFF AND ISZERO PUSH2 0x538 JUMPI PUSH1 0x40 MLOAD PUSH3 0x461BCD PUSH1 0xE5 SHL DUP2 MSTORE PUSH1 0x20 PUSH1 0x4 DUP3 ADD MSTORE PUSH1 0x1A PUSH1 0x24 DUP3 ADD MSTORE PUSH32 0x5175697A457363726F773A205175697A2068617320656E646564000000000000 PUSH1 0x44 DUP3 ADD MSTORE PUSH1 0x64 ADD PUSH2 0x4DC JUMP JUMPDEST PUSH2 0x565 PUSH32 0x0 PUSH3 0x15180 PUSH2 0xEAC JUMP JUMPDEST TIMESTAMP LT PUSH2 0x5B3 JUMPI PUSH1 0x40 MLOAD PUSH3 0x461BCD PUSH1 0xE5 SHL DUP2 MSTORE PUSH1 0x20 PUSH1 0x4 DUP3 ADD MSTORE PUSH1 0x1C PUSH1 0x24 DUP3 ADD MSTORE PUSH32 0x5175697A457363726F773A205175697A20686173206578706972656400000000 PUSH1 0x44 DUP3 ADD MSTORE PUSH1 0x64 ADD PUSH2 0x4DC JUMP JUMPDEST PUSH1 0x1 PUSH1 0x1 PUSH1 0xA0 SHL SUB DUP4 AND PUSH2 0x619 JUMPI PUSH1 0x40 MLOAD PUSH3 0x461BCD PUSH1 0xE5 SHL DUP2 MSTORE PUSH1 0x20 PUSH1 0x4 DUP3 ADD MSTORE PUSH1 0x27 PUSH1 0x24 DUP3 ADD MSTORE PUSH32 0x5175697A457363726F773A20496E76616C6964207061727469636970616E7420 PUSH1 0x44 DUP3 ADD MSTORE PUSH7 0x61646472657373 PUSH1 0xC8 SHL PUSH1 0x64 DUP3 ADD MSTORE PUSH1 0x84 ADD PUSH2 0x4DC JUMP JUMPDEST PUSH1 0x1 PUSH1 0x1 PUSH1 0xA0 SHL SUB DUP4 AND PUSH1 0x0 SWAP1 DUP2 MSTORE PUSH1 0x6 PUSH1 0x20 MSTORE PUSH1 0x40 SWAP1 KECCAK256 PUSH1 0x3 ADD SLOAD PUSH1 0xFF AND ISZERO PUSH2 0x696 JUMPI PUSH1 0x40 MLOAD PUSH3 0x461BCD PUSH1 0xE5 SHL DUP2 MSTORE PUSH1 0x20 PUSH1 0x4 DUP3 ADD MSTORE PUSH1 0x28 PUSH1 0x24 DUP3 ADD MSTORE PUSH32 0x5175697A457363726F773A205061727469636970616E7420616C726561647920 PUSH1 0x44 DUP3 ADD MSTORE PUSH8 0x1C9958DBDC991959 PUSH1 0xC2 SHL PUSH1 0x64 DUP3 ADD MSTORE PUSH1 0x84 ADD PUSH2 0x4DC JUMP JUMPDEST PUSH1 0x0 DUP3 GT DUP1 PUSH2 0x6A5 JUMPI POP PUSH1 0x0 DUP2 GT JUMPDEST PUSH2 0x703 JUMPI PUSH1 0x40 MLOAD PUSH3 0x461BCD PUSH1 0xE5 SHL DUP2 MSTORE PUSH1 0x20 PUSH1 0x4 DUP3 ADD MSTORE PUSH1 0x29 PUSH1 0x24 DUP3 ADD MSTORE PUSH32 0x5175697A457363726F773A204D7573742068617665206174206C65617374206F PUSH1 0x44 DUP3 ADD MSTORE PUSH9 0x37329030B739BBB2B9 PUSH1 0xB9 SHL PUSH1 0x64 DUP3 ADD MSTORE PUSH1 0x84 ADD PUSH2 0x4DC JUMP JUMPDEST PUSH1 0x0 PUSH2 0x72F PUSH32 0x0 DUP4 PUSH2 0xEC5 JUMP JUMPDEST PUSH2 0x759 PUSH32 0x0 DUP6 PUSH2 0xEC5 JUMP JUMPDEST PUSH2 0x763 SWAP2 SWAP1 PUSH2 0xEAC JUMP JUMPDEST SWAP1 POP SELFBALANCE DUP2 GT ISZERO PUSH2 0x7C7 JUMPI PUSH1 0x40 MLOAD PUSH3 0x461BCD PUSH1 0xE5 SHL DUP2 MSTORE PUSH1 0x20 PUSH1 0x4 DUP3 ADD MSTORE PUSH1 0x29 PUSH1 0x24 DUP3 ADD MSTORE PUSH32 0x5175697A457363726F773A20496E73756666696369656E742066756E64732066 PUSH1 0x44 DUP3 ADD MSTORE PUSH9 0x1BDC881C185E5BDD5D PUSH1 0xBA SHL PUSH1 0x64 DUP3 ADD MSTORE PUSH1 0x84 ADD PUSH2 0x4DC JUMP JUMPDEST PUSH1 0x40 DUP1 MLOAD PUSH1 0x80 DUP2 ADD DUP3 MSTORE DUP5 DUP2 MSTORE PUSH1 0x20 DUP1 DUP3 ADD DUP6 DUP2 MSTORE DUP3 DUP5 ADD DUP6 DUP2 MSTORE PUSH1 0x1 PUSH1 0x60 DUP6 ADD DUP2 DUP2 MSTORE PUSH1 0x1 PUSH1 0x1 PUSH1 0xA0 SHL SUB DUP12 AND PUSH1 0x0 DUP2 DUP2 MSTORE PUSH1 0x6 SWAP1 SWAP7 MSTORE SWAP7 DUP6 KECCAK256 SWAP6 MLOAD DUP7 SSTORE SWAP3 MLOAD DUP6 DUP3 ADD SSTORE SWAP1 MLOAD PUSH1 0x2 DUP1 DUP7 ADD SWAP2 SWAP1 SWAP2 SSTORE SWAP2 MLOAD PUSH1 0x3 SWAP1 SWAP5 ADD DUP1 SLOAD PUSH1 0xFF NOT AND SWAP5 ISZERO ISZERO SWAP5 SWAP1 SWAP5 OR SWAP1 SWAP4 SSTORE PUSH1 0x5 DUP1 SLOAD SWAP4 DUP5 ADD DUP2 SSTORE DUP3 MSTORE PUSH32 0x36B6384B5ECA791C62761152D0C79BB0604C104A5FB6F4EB0703F3154BB3DB0 SWAP1 SWAP3 ADD DUP1 SLOAD PUSH1 0x1 PUSH1 0x1 PUSH1 0xA0 SHL SUB NOT AND SWAP1 SWAP4 OR SWAP1 SWAP3 SSTORE DUP1 SLOAD SWAP2 PUSH2 0x87B DUP4 PUSH2 0xEDC JUMP JUMPDEST SWAP2 SWAP1 POP SSTORE POP DUP3 PUSH1 0x3 PUSH1 0x0 DUP3 DUP3 SLOAD PUSH2 0x892 SWAP2 SWAP1 PUSH2 0xEAC JUMP JUMPDEST SWAP3 POP POP DUP2 SWAP1 SSTORE POP DUP2 PUSH1 0x4 PUSH1 0x0 DUP3 DUP3 SLOAD PUSH2 0x8AB SWAP2 SWAP1 PUSH2 0xEAC JUMP JUMPDEST SWAP3 POP POP DUP2 SWAP1 SSTORE POP DUP1 PUSH1 0x0 DUP1 DUP3 DUP3 SLOAD PUSH2 0x8C3 SWAP2 SWAP1 PUSH2 0xEAC JUMP JUMPDEST SWAP1 SWAP2 SSTORE POP POP DUP1 ISZERO PUSH2 0x973 JUMPI PUSH1 0x0 DUP5 PUSH1 0x1 PUSH1 0x1 PUSH1 0xA0 SHL SUB AND DUP3 PUSH1 0x40 MLOAD PUSH1 0x0 PUSH1 0x40 MLOAD DUP1 DUP4 SUB DUP2 DUP6 DUP8 GAS CALL SWAP3 POP POP POP RETURNDATASIZE DUP1 PUSH1 0x0 DUP2 EQ PUSH2 0x91B JUMPI PUSH1 0x40 MLOAD SWAP2 POP PUSH1 0x1F NOT PUSH1 0x3F RETURNDATASIZE ADD AND DUP3 ADD PUSH1 0x40 MSTORE RETURNDATASIZE DUP3 MSTORE RETURNDATASIZE PUSH1 0x0 PUSH1 0x20 DUP5 ADD RETURNDATACOPY PUSH2 0x920 JUMP JUMPDEST PUSH1 0x60 SWAP2 POP JUMPDEST POP POP SWAP1 POP DUP1 PUSH2 0x971 JUMPI PUSH1 0x40 MLOAD PUSH3 0x461BCD PUSH1 0xE5 SHL DUP2 MSTORE PUSH1 0x20 PUSH1 0x4 DUP3 ADD MSTORE PUSH1 0x1A PUSH1 0x24 DUP3 ADD MSTORE PUSH32 0x5175697A457363726F773A205061796D656E74206661696C6564000000000000 PUSH1 0x44 DUP3 ADD MSTORE PUSH1 0x64 ADD PUSH2 0x4DC JUMP JUMPDEST POP JUMPDEST PUSH1 0x40 DUP1 MLOAD DUP5 DUP2 MSTORE PUSH1 0x20 DUP2 ADD DUP5 SWAP1 MSTORE SWAP1 DUP2 ADD DUP3 SWAP1 MSTORE PUSH1 0x1 PUSH1 0x1 PUSH1 0xA0 SHL SUB DUP6 AND SWAP1 PUSH32 0x505EA5F95AB2F1563B21D724DB1B6C59F3E8B8CA0169DD0D2DCD6C2B45371ECF SWAP1 PUSH1 0x60 ADD PUSH1 0x40 MLOAD DUP1 SWAP2 SUB SWAP1 LOG2 POP POP POP POP JUMP JUMPDEST PUSH2 0x9F2 PUSH32 0x0 PUSH3 0x15180 PUSH2 0xEAC JUMP JUMPDEST TIMESTAMP LT ISZERO DUP1 PUSH2 0xA28 JUMPI POP CALLER PUSH1 0x1 PUSH1 0x1 PUSH1 0xA0 SHL SUB PUSH32 0x0 AND EQ JUMPDEST PUSH2 0xA9A JUMPI PUSH1 0x40 MLOAD PUSH3 0x461BCD PUSH1 0xE5 SHL DUP2 MSTORE PUSH1 0x20 PUSH1 0x4 DUP3 ADD MSTORE PUSH1 0x3A PUSH1 0x24 DUP3 ADD MSTORE PUSH32 0x5175697A457363726F773A205175697A206E6F74206578706972656420616E64 PUSH1 0x44 DUP3 ADD MSTORE PUSH32 0x2063616C6C6572206E6F7420617574686F72697A656420626F74000000000000 PUSH1 0x64 DUP3 ADD MSTORE PUSH1 0x84 ADD PUSH2 0x4DC JUMP JUMPDEST PUSH1 0x1 SLOAD PUSH1 0xFF AND ISZERO PUSH2 0xAED JUMPI PUSH1 0x40 MLOAD PUSH3 0x461BCD PUSH1 0xE5 SHL DUP2 MSTORE PUSH1 0x20 PUSH1 0x4 DUP3 ADD MSTORE PUSH1 0x1E PUSH1 0x24 DUP3 ADD MSTORE PUSH32 0x5175697A457363726F773A205175697A20616C726561647920656E6465640000 PUSH1 0x44 DUP3 ADD MSTORE PUSH1 0x64 ADD PUSH2 0x4DC JUMP JUMPDEST PUSH1 0x1 DUP1 SLOAD PUSH1 0xFF NOT AND DUP2 OR SWAP1 SSTORE SELFBALANCE DUP1 ISZERO PUSH2 0xC3E JUMPI PUSH1 0x0 PUSH32 0x0 PUSH1 0x1 PUSH1 0x1 PUSH1 0xA0 SHL SUB AND DUP3 PUSH1 0x40 MLOAD PUSH1 0x0 PUSH1 0x40 MLOAD DUP1 DUP4 SUB DUP2 DUP6 DUP8 GAS CALL SWAP3 POP POP POP RETURNDATASIZE DUP1 PUSH1 0x0 DUP2 EQ PUSH2 0xB6D JUMPI PUSH1 0x40 MLOAD SWAP2 POP PUSH1 0x1F NOT PUSH1 0x3F RETURNDATASIZE ADD AND DUP3 ADD PUSH1 0x40 MSTORE RETURNDATASIZE DUP3 MSTORE RETURNDATASIZE PUSH1 0x0 PUSH1 0x20 DUP5 ADD RETURNDATACOPY PUSH2 0xB72 JUMP JUMPDEST PUSH1 0x60 SWAP2 POP JUMPDEST POP POP SWAP1 POP DUP1 PUSH2 0xBD9 JUMPI PUSH1 0x40 MLOAD PUSH3 0x461BCD PUSH1 0xE5 SHL DUP2 MSTORE PUSH1 0x20 PUSH1 0x4 DUP3 ADD MSTORE PUSH1 0x2D PUSH1 0x24 DUP3 ADD MSTORE PUSH32 0x5175697A457363726F773A204661696C656420746F2072657475726E2066756E PUSH1 0x44 DUP3 ADD MSTORE PUSH13 0x3239903A379031B932B0BA37B9 PUSH1 0x99 SHL PUSH1 0x64 DUP3 ADD MSTORE PUSH1 0x84 ADD PUSH2 0x4DC JUMP JUMPDEST PUSH32 0x0 PUSH1 0x1 PUSH1 0x1 PUSH1 0xA0 SHL SUB AND PUSH32 0xA040CA073376D39884E5322E13F5E38FE9DB9B46F46D474E7CFCFBDF2D617A9A DUP4 PUSH1 0x40 MLOAD PUSH2 0xC34 SWAP2 DUP2 MSTORE PUSH1 0x20 ADD SWAP1 JUMP JUMPDEST PUSH1 0x40 MLOAD DUP1 SWAP2 SUB SWAP1 LOG2 POP JUMPDEST PUSH32 0xA079FDBA1BC1AF068F704947986666FEB435D952A5DB81D4109E9E7D070EFBDB PUSH1 0x2 SLOAD PUSH1 0x0 SLOAD PUSH1 0x40 MLOAD PUSH2 0xC7C SWAP3 SWAP2 SWAP1 SWAP2 DUP3 MSTORE PUSH1 0x20 DUP3 ADD MSTORE PUSH1 0x40 ADD SWAP1 JUMP JUMPDEST PUSH1 0x40 MLOAD DUP1 SWAP2 SUB SWAP1 LOG1 POP JUMP JUMPDEST PUSH1 0x0 DUP1 PUSH1 0x0 DUP1 PUSH1 0x0 DUP1 PUSH1 0x0 PUSH1 0x2 SLOAD PUSH1 0x3 SLOAD PUSH1 0x4 SLOAD PUSH1 0x0 SLOAD SELFBALANCE PUSH32 0x0 PUSH3 0x15180 PUSH2 0xCCE SWAP2 SWAP1 PUSH2 0xEAC JUMP JUMPDEST PUSH1 0x1 SLOAD SWAP6 SWAP14 SWAP5 SWAP13 POP SWAP3 SWAP11 POP SWAP1 SWAP9 POP SWAP7 POP TIMESTAMP LT ISZERO SWAP5 POP PUSH1 0xFF SWAP1 SWAP2 AND SWAP3 POP SWAP1 POP JUMP JUMPDEST PUSH2 0xD1B PUSH1 0x40 MLOAD DUP1 PUSH1 0x80 ADD PUSH1 0x40 MSTORE DUP1 PUSH1 0x0 DUP2 MSTORE PUSH1 0x20 ADD PUSH1 0x0 DUP2 MSTORE PUSH1 0x20 ADD PUSH1 0x0 DUP2 MSTORE PUSH1 0x20 ADD PUSH1 0x0 ISZERO ISZERO DUP2 MSTORE POP SWAP1 JUMP JUMPDEST POP PUSH1 0x1 PUSH1 0x1 PUSH1 0xA0 SHL SUB AND PUSH1 0x0 SWAP1 DUP2 MSTORE PUSH1 0x6 PUSH1 0x20 SWAP1 DUP2 MSTORE PUSH1 0x40 SWAP2 DUP3 SWAP1 KECCAK256 DUP3 MLOAD PUSH1 0x80 DUP2 ADD DUP5 MSTORE DUP2 SLOAD DUP2 MSTORE PUSH1 0x1 DUP3 ADD SLOAD SWAP3 DUP2 ADD SWAP3 SWAP1 SWAP3 MSTORE PUSH1 0x2 DUP2 ADD SLOAD SWAP3 DUP3 ADD SWAP3 SWAP1 SWAP3 MSTORE PUSH1 0x3 SWAP1 SWAP2 ADD SLOAD PUSH1 0xFF AND ISZERO ISZERO PUSH1 0x60 DUP3 ADD MSTORE SWAP1 JUMP JUMPDEST PUSH1 0x0 DUP1 PUSH2 0xD9E PUSH32 0x0 PUSH3 0x15180 PUSH2 0xEAC JUMP JUMPDEST SWAP1 POP DUP1 TIMESTAMP LT PUSH2 0xDAF JUMPI PUSH1 0x0 SWAP2 POP POP SWAP1 JUMP JUMPDEST PUSH2 0xDB9 TIMESTAMP DUP3 PUSH2 0xEF5 JUMP JUMPDEST SWAP2 POP POP SWAP1 JUMP JUMPDEST PUSH1 0x20 DUP1 DUP3 MSTORE DUP3 MLOAD DUP3 DUP3 ADD DUP2 SWAP1 MSTORE PUSH1 0x0 SWAP2 SWAP1 DUP5 DUP3 ADD SWAP1 PUSH1 0x40 DUP6 ADD SWAP1 DUP5 JUMPDEST DUP2 DUP2 LT ISZERO PUSH2 0xE00 JUMPI DUP4 MLOAD PUSH1 0x1 PUSH1 0x1 PUSH1 0xA0 SHL SUB AND DUP4 MSTORE SWAP3 DUP5 ADD SWAP3 SWAP2 DUP5 ADD SWAP2 PUSH1 0x1 ADD PUSH2 0xDDB JUMP JUMPDEST POP SWAP1 SWAP7 SWAP6 POP POP POP POP POP POP JUMP JUMPDEST PUSH1 0x0 PUSH1 0x20 DUP3 DUP5 SUB SLT ISZERO PUSH2 0xE1E JUMPI PUSH1 0x0 DUP1 REVERT JUMPDEST POP CALLDATALOAD SWAP2 SWAP1 POP JUMP JUMPDEST DUP1 CALLDATALOAD PUSH1 0x1 PUSH1 0x1 PUSH1 0xA0 SHL SUB DUP2 AND DUP2 EQ PUSH2 0xE3C JUMPI PUSH1 0x0 DUP1 REVERT JUMPDEST SWAP2 SWAP1 POP JUMP JUMPDEST PUSH1 0x0 DUP1 PUSH1 0x0 PUSH1 0x60 DUP5 DUP7 SUB SLT ISZERO PUSH2 0xE56 JUMPI PUSH1 0x0 DUP1 REVERT JUMPDEST PUSH2 0xE5F DUP5 PUSH2 0xE25 JUMP JUMPDEST SWAP6 PUSH1 0x20 DUP6 ADD CALLDATALOAD SWAP6 POP PUSH1 0x40 SWAP1 SWAP5 ADD CALLDATALOAD SWAP4 SWAP3 POP POP POP JUMP JUMPDEST PUSH1 0x0 PUSH1 0x20 DUP3 DUP5 SUB SLT ISZERO PUSH2 0xE86 JUMPI PUSH1 0x0 DUP1 REVERT JUMPDEST PUSH2 0xE8F DUP3 PUSH2 0xE25 JUMP JUMPDEST SWAP4 SWAP3 POP POP POP JUMP JUMPDEST PUSH4 0x4E487B71 PUSH1 0xE0 SHL PUSH1 0x0 MSTORE PUSH1 0x11 PUSH1 0x4 MSTORE PUSH1 0x24 PUSH1 0x0 REVERT JUMPDEST DUP1 DUP3 ADD DUP1 DUP3 GT ISZERO PUSH2 0xEBF JUMPI PUSH2 0xEBF PUSH2 0xE96 JUMP JUMPDEST SWAP3 SWAP2 POP POP JUMP JUMPDEST DUP1 DUP3 MUL DUP2 ISZERO DUP3 DUP3 DIV DUP5 EQ OR PUSH2 0xEBF JUMPI PUSH2 0xEBF PUSH2 0xE96 JUMP JUMPDEST PUSH1 0x0 PUSH1 0x1 DUP3 ADD PUSH2 0xEEE JUMPI PUSH2 0xEEE PUSH2 0xE96 JUMP JUMPDEST POP PUSH1 0x1 ADD SWAP1 JUMP JUMPDEST DUP2 DUP2 SUB DUP2 DUP2 GT ISZERO PUSH2 0xEBF JUMPI PUSH2 0xEBF PUSH2 0xE96 JUMP INVALID LOG2 PUSH5 0x6970667358 0x22 SLT KECCAK256 0x5C PUSH22 0xDFF544B30BAA8BA9A980156C21D90BFFA1921B58F831 0x1E PUSH4 0x30F3888B 0x4B 0xE4 PUSH5 0x736F6C6343 STOP ADDMOD AND STOP CALLER "},"methodIdentifiers":{"authorizedBot()":"52bcaa13","correctReward()":"7b427204","creationTime()":"d8270dce","creator()":"02d05d3f","endQuiz()":"5b0700a8","fundingAmount()":"04a79c97","getAllParticipants()":"195ec9ee","getBalance()":"12065fe0","getParticipantResult(address)":"e41c3ce4","getQuizStats()":"c7f43d58","getRemainingTime()":"efb98bcf","incorrectReward()":"6381eea6","isEnded()":"a4fd6f56","participantResults(address)":"dc1892e6","participantsList(uint256)":"2820aece","recordQuizResult(address,uint256,uint256)":"55e08c2b","totalCorrectAnswers()":"d2356593","totalIncorrectAnswers()":"55acbb78","totalPaidOut()":"1357e1dc","totalParticipants()":"a26dbf26"}}}}}