{
  "_format": "hh-sol-artifact-1",
  "contractName": "QuizEscrow",
  "sourceName": "contracts/src/QuizEscrow.sol",
  "abi": [
    {
      "inputs": [
        {
          "internalType": "address",
          "name": "_creator",
          "type": "address"
        },
        {
          "internalType": "address",
          "name": "_authorizedBot",
          "type": "address"
        },
        {
          "internalType": "uint256",
          "name": "_correctReward",
          "type": "uint256"
        },
        {
          "internalType": "uint256",
          "name": "_incorrectReward",
          "type": "uint256"
        }
      ],
      "stateMutability": "payable",
      "type": "constructor"
    },
    {
      "anonymous": false,
      "inputs": [
        {
          "indexed": true,
          "internalType": "address",
          "name": "creator",
          "type": "address"
        },
        {
          "indexed": true,
          "internalType": "address",
          "name": "authorizedBot",
          "type": "address"
        },
        {
          "indexed": false,
          "internalType": "uint256",
          "name": "fundingAmount",
          "type": "uint256"
        },
        {
          "indexed": false,
          "internalType": "uint256",
          "name": "correctReward",
          "type": "uint256"
        },
        {
          "indexed": false,
          "internalType": "uint256",
          "name": "incorrectReward",
          "type": "uint256"
        }
      ],
      "name": "QuizCreated",
      "type": "event"
    },
    {
      "anonymous": false,
      "inputs": [
        {
          "indexed": false,
          "internalType": "uint256",
          "name": "totalParticipants",
          "type": "uint256"
        },
        {
          "indexed": false,
          "internalType": "uint256",
          "name": "totalPaidOut",
          "type": "uint256"
        }
      ],
      "name": "QuizEnded",
      "type": "event"
    },
    {
      "anonymous": false,
      "inputs": [
        {
          "indexed": true,
          "internalType": "address",
          "name": "participant",
          "type": "address"
        },
        {
          "indexed": false,
          "internalType": "uint256",
          "name": "correctCount",
          "type": "uint256"
        },
        {
          "indexed": false,
          "internalType": "uint256",
          "name": "incorrectCount",
          "type": "uint256"
        },
        {
          "indexed": false,
          "internalType": "uint256",
          "name": "payout",
          "type": "uint256"
        }
      ],
      "name": "QuizResultRecorded",
      "type": "event"
    },
    {
      "anonymous": false,
      "inputs": [
        {
          "indexed": true,
          "internalType": "address",
          "name": "creator",
          "type": "address"
        },
        {
          "indexed": false,
          "internalType": "uint256",
          "name": "amount",
          "type": "uint256"
        }
      ],
      "name": "UnclaimedFundsReturned",
      "type": "event"
    },
    {
      "inputs": [],
      "name": "authorizedBot",
      "outputs": [
        {
          "internalType": "address",
          "name": "",
          "type": "address"
        }
      ],
      "stateMutability": "view",
      "type": "function"
    },
    {
      "inputs": [],
      "name": "correctReward",
      "outputs": [
        {
          "internalType": "uint256",
          "name": "",
          "type": "uint256"
        }
      ],
      "stateMutability": "view",
      "type": "function"
    },
    {
      "inputs": [],
      "name": "creationTime",
      "outputs": [
        {
          "internalType": "uint256",
          "name": "",
          "type": "uint256"
        }
      ],
      "stateMutability": "view",
      "type": "function"
    },
    {
      "inputs": [],
      "name": "creator",
      "outputs": [
        {
          "internalType": "address",
          "name": "",
          "type": "address"
        }
      ],
      "stateMutability": "view",
      "type": "function"
    },
    {
      "inputs": [],
      "name": "endQuiz",
      "outputs": [],
      "stateMutability": "nonpayable",
      "type": "function"
    },
    {
      "inputs": [],
      "name": "fundingAmount",
      "outputs": [
        {
          "internalType": "uint256",
          "name": "",
          "type": "uint256"
        }
      ],
      "stateMutability": "view",
      "type": "function"
    },
    {
      "inputs": [],
      "name": "getAllParticipants",
      "outputs": [
        {
          "internalType": "address[]",
          "name": "participants",
          "type": "address[]"
        }
      ],
      "stateMutability": "view",
      "type": "function"
    },
    {
      "inputs": [],
      "name": "getBalance",
      "outputs": [
        {
          "internalType": "uint256",
          "name": "balance",
          "type": "uint256"
        }
      ],
      "stateMutability": "view",
      "type": "function"
    },
    {
      "inputs": [
        {
          "internalType": "address",
          "name": "participant",
          "type": "address"
        }
      ],
      "name": "getParticipantResult",
      "outputs": [
        {
          "components": [
            {
              "internalType": "uint256",
              "name": "correctCount",
              "type": "uint256"
            },
            {
              "internalType": "uint256",
              "name": "incorrectCount",
              "type": "uint256"
            },
            {
              "internalType": "uint256",
              "name": "totalPayout",
              "type": "uint256"
            },
            {
              "internalType": "bool",
              "name": "hasParticipated",
              "type": "bool"
            }
          ],
          "internalType": "struct QuizEscrow.ParticipantResult",
          "name": "result",
          "type": "tuple"
        }
      ],
      "stateMutability": "view",
      "type": "function"
    },
    {
      "inputs": [],
      "name": "getQuizStats",
      "outputs": [
        {
          "internalType": "uint256",
          "name": "_totalParticipants",
          "type": "uint256"
        },
        {
          "internalType": "uint256",
          "name": "_totalCorrectAnswers",
          "type": "uint256"
        },
        {
          "internalType": "uint256",
          "name": "_totalIncorrectAnswers",
          "type": "uint256"
        },
        {
          "internalType": "uint256",
          "name": "_totalPaidOut",
          "type": "uint256"
        },
        {
          "internalType": "uint256",
          "name": "_remainingBalance",
          "type": "uint256"
        },
        {
          "internalType": "bool",
          "name": "_isExpired",
          "type": "bool"
        },
        {
          "internalType": "bool",
          "name": "_isEnded",
          "type": "bool"
        }
      ],
      "stateMutability": "view",
      "type": "function"
    },
    {
      "inputs": [],
      "name": "getRemainingTime",
      "outputs": [
        {
          "internalType": "uint256",
          "name": "remainingTime",
          "type": "uint256"
        }
      ],
      "stateMutability": "view",
      "type": "function"
    },
    {
      "inputs": [],
      "name": "incorrectReward",
      "outputs": [
        {
          "internalType": "uint256",
          "name": "",
          "type": "uint256"
        }
      ],
      "stateMutability": "view",
      "type": "function"
    },
    {
      "inputs": [],
      "name": "isEnded",
      "outputs": [
        {
          "internalType": "bool",
          "name": "",
          "type": "bool"
        }
      ],
      "stateMutability": "view",
      "type": "function"
    },
    {
      "inputs": [
        {
          "internalType": "address",
          "name": "",
          "type": "address"
        }
      ],
      "name": "participantResults",
      "outputs": [
        {
          "internalType": "uint256",
          "name": "correctCount",
          "type": "uint256"
        },
        {
          "internalType": "uint256",
          "name": "incorrectCount",
          "type": "uint256"
        },
        {
          "internalType": "uint256",
          "name": "totalPayout",
          "type": "uint256"
        },
        {
          "internalType": "bool",
          "name": "hasParticipated",
          "type": "bool"
        }
      ],
      "stateMutability": "view",
      "type": "function"
    },
    {
      "inputs": [
        {
          "internalType": "uint256",
          "name": "",
          "type": "uint256"
        }
      ],
      "name": "participantsList",
      "outputs": [
        {
          "internalType": "address",
          "name": "",
          "type": "address"
        }
      ],
      "stateMutability": "view",
      "type": "function"
    },
    {
      "inputs": [
        {
          "internalType": "address",
          "name": "participant",
          "type": "address"
        },
        {
          "internalType": "uint256",
          "name": "correctCount",
          "type": "uint256"
        },
        {
          "internalType": "uint256",
          "name": "incorrectCount",
          "type": "uint256"
        }
      ],
      "name": "recordQuizResult",
      "outputs": [],
      "stateMutability": "nonpayable",
      "type": "function"
    },
    {
      "inputs": [],
      "name": "totalCorrectAnswers",
      "outputs": [
        {
          "internalType": "uint256",
          "name": "",
          "type": "uint256"
        }
      ],
      "stateMutability": "view",
      "type": "function"
    },
    {
      "inputs": [],
      "name": "totalIncorrectAnswers",
      "outputs": [
        {
          "internalType": "uint256",
          "name": "",
          "type": "uint256"
        }
      ],
      "stateMutability": "view",
      "type": "function"
    },
    {
      "inputs": [],
      "name": "totalPaidOut",
      "outputs": [
        {
          "internalType": "uint256",
          "name": "",
          "type": "uint256"
        }
      ],
      "stateMutability": "view",
      "type": "function"
    },
    {
      "inputs": [],
      "name": "totalParticipants",
      "outputs": [
        {
          "internalType": "uint256",
          "name": "",
          "type": "uint256"
        }
      ],
      "stateMutability": "view",
      "type": "function"
    }
  ],
  "bytecode": "0x61014060405260405161118c38038061118c83398101604081905261002391610176565b6001600160a01b03841661008a5760405162461bcd60e51b815260206004820152602360248201527f5175697a457363726f773a20496e76616c69642063726561746f72206164647260448201526265737360e81b60648201526084015b60405180910390fd5b6001600160a01b0383166100e05760405162461bcd60e51b815260206004820152601f60248201527f5175697a457363726f773a20496e76616c696420626f742061646472657373006044820152606401610081565b6001600160a01b03848116608081905290841660a08190524260c0523460e0819052610100859052610120849052604080519182526020820186905281018490529091907f7827af77e7b6672abd014a70dd2023f4fe7c0e5f4c029a83295cbf193a8f8ea09060600160405180910390a3505050506101b9565b80516001600160a01b038116811461017157600080fd5b919050565b6000806000806080858703121561018c57600080fd5b6101958561015a565b93506101a36020860161015a565b6040860151606090960151949790965092505050565b60805160a05160c05160e0516101005161012051610f3e61024e60003960008181610233015261070a01526000818161025a01526107340152600061017a0152600081816102f10152818161053d015281816109ca01528181610ca10152610d760152600081816101e6015281816104540152610a0601526000818161013601528181610b040152610bdb0152610f3e6000f3fe608060405234801561001057600080fd5b506004361061012c5760003560e01c80636381eea6116100ad578063d235659311610071578063d2356593146102e3578063d8270dce146102ec578063dc1892e614610313578063e41c3ce41461036d578063efb98bcf146103b557600080fd5b80636381eea61461022e5780637b42720414610255578063a26dbf261461027c578063a4fd6f5614610285578063c7f43d58146102a257600080fd5b80632820aece116100f45780632820aece146101ce57806352bcaa13146101e157806355acbb781461020857806355e08c2b146102115780635b0700a81461022657600080fd5b806302d05d3f1461013157806304a79c971461017557806312065fe0146101aa5780631357e1dc146101b0578063195ec9ee146101b9575b600080fd5b6101587f000000000000000000000000000000000000000000000000000000000000000081565b6040516001600160a01b0390911681526020015b60405180910390f35b61019c7f000000000000000000000000000000000000000000000000000000000000000081565b60405190815260200161016c565b4761019c565b61019c60005481565b6101c16103bd565b60405161016c9190610dbf565b6101586101dc366004610e0c565b61041f565b6101587f000000000000000000000000000000000000000000000000000000000000000081565b61019c60045481565b61022461021f366004610e41565b610449565b005b6102246109c5565b61019c7f000000000000000000000000000000000000000000000000000000000000000081565b61019c7f000000000000000000000000000000000000000000000000000000000000000081565b61019c60025481565b6001546102929060ff1681565b604051901515815260200161016c565b6102aa610c87565b6040805197885260208801969096529486019390935260608501919091526080840152151560a0830152151560c082015260e00161016c565b61019c60035481565b61019c7f000000000000000000000000000000000000000000000000000000000000000081565b61034b610321366004610e74565b60066020526000908152604090208054600182015460028301546003909301549192909160ff1684565b604080519485526020850193909352918301521515606082015260800161016c565b61038061037b366004610e74565b610cee565b60405161016c919081518152602080830151908201526040808301519082015260609182015115159181019190915260800190565b61019c610d6e565b6060600580548060200260200160405190810160405280929190818152602001828054801561041557602002820191906000526020600020905b81546001600160a01b031681526001909101906020018083116103f7575b5050505050905090565b6005818154811061042f57600080fd5b6000918252602090912001546001600160a01b0316905081565b336001600160a01b037f000000000000000000000000000000000000000000000000000000000000000016146104e55760405162461bcd60e51b815260206004820152603660248201527f5175697a457363726f773a204f6e6c7920617574686f72697a656420626f742060448201527531b0b71031b0b636103a3434b990333ab731ba34b7b760511b60648201526084015b60405180910390fd5b60015460ff16156105385760405162461bcd60e51b815260206004820152601a60248201527f5175697a457363726f773a205175697a2068617320656e64656400000000000060448201526064016104dc565b6105657f000000000000000000000000000000000000000000000000000000000000000062015180610eac565b42106105b35760405162461bcd60e51b815260206004820152601c60248201527f5175697a457363726f773a205175697a2068617320657870697265640000000060448201526064016104dc565b6001600160a01b0383166106195760405162461bcd60e51b815260206004820152602760248201527f5175697a457363726f773a20496e76616c6964207061727469636970616e74206044820152666164647265737360c81b60648201526084016104dc565b6001600160a01b03831660009081526006602052604090206003015460ff16156106965760405162461bcd60e51b815260206004820152602860248201527f5175697a457363726f773a205061727469636970616e7420616c7265616479206044820152671c9958dbdc99195960c21b60648201526084016104dc565b60008211806106a55750600081115b6107035760405162461bcd60e51b815260206004820152602960248201527f5175697a457363726f773a204d7573742068617665206174206c65617374206f60448201526837329030b739bbb2b960b91b60648201526084016104dc565b600061072f7f000000000000000000000000000000000000000000000000000000000000000083610ec5565b6107597f000000000000000000000000000000000000000000000000000000000000000085610ec5565b6107639190610eac565b9050478111156107c75760405162461bcd60e51b815260206004820152602960248201527f5175697a457363726f773a20496e73756666696369656e742066756e647320666044820152681bdc881c185e5bdd5d60ba1b60648201526084016104dc565b6040805160808101825284815260208082018581528284018581526001606085018181526001600160a01b038b166000818152600690965296852095518655925185820155905160028086019190915591516003909401805460ff19169415159490941790935560058054938401815582527f036b6384b5eca791c62761152d0c79bb0604c104a5fb6f4eb0703f3154bb3db090920180546001600160a01b03191690931790925580549161087b83610edc565b919050555082600360008282546108929190610eac565b9250508190555081600460008282546108ab9190610eac565b92505081905550806000808282546108c39190610eac565b90915550508015610973576000846001600160a01b03168260405160006040518083038185875af1925050503d806000811461091b576040519150601f19603f3d011682016040523d82523d6000602084013e610920565b606091505b50509050806109715760405162461bcd60e51b815260206004820152601a60248201527f5175697a457363726f773a205061796d656e74206661696c656400000000000060448201526064016104dc565b505b60408051848152602081018490529081018290526001600160a01b038516907f505ea5f95ab2f1563b21d724db1b6c59f3e8b8ca0169dd0d2dcd6c2b45371ecf9060600160405180910390a250505050565b6109f27f000000000000000000000000000000000000000000000000000000000000000062015180610eac565b42101580610a285750336001600160a01b037f000000000000000000000000000000000000000000000000000000000000000016145b610a9a5760405162461bcd60e51b815260206004820152603a60248201527f5175697a457363726f773a205175697a206e6f74206578706972656420616e6460448201527f2063616c6c6572206e6f7420617574686f72697a656420626f7400000000000060648201526084016104dc565b60015460ff1615610aed5760405162461bcd60e51b815260206004820152601e60248201527f5175697a457363726f773a205175697a20616c726561647920656e646564000060448201526064016104dc565b6001805460ff191681179055478015610c3e5760007f00000000000000000000000000000000000000000000000000000000000000006001600160a01b03168260405160006040518083038185875af1925050503d8060008114610b6d576040519150601f19603f3d011682016040523d82523d6000602084013e610b72565b606091505b5050905080610bd95760405162461bcd60e51b815260206004820152602d60248201527f5175697a457363726f773a204661696c656420746f2072657475726e2066756e60448201526c3239903a379031b932b0ba37b960991b60648201526084016104dc565b7f00000000000000000000000000000000000000000000000000000000000000006001600160a01b03167fa040ca073376d39884e5322e13f5e38fe9db9b46f46d474e7cfcfbdf2d617a9a83604051610c3491815260200190565b60405180910390a2505b7fa079fdba1bc1af068f704947986666feb435d952a5db81d4109e9e7d070efbdb600254600054604051610c7c929190918252602082015260400190565b60405180910390a150565b6000806000806000806000600254600354600454600054477f000000000000000000000000000000000000000000000000000000000000000062015180610cce9190610eac565b600154959d949c50929a509098509650421015945060ff90911692509050565b610d1b60405180608001604052806000815260200160008152602001600081526020016000151581525090565b506001600160a01b031660009081526006602090815260409182902082516080810184528154815260018201549281019290925260028101549282019290925260039091015460ff161515606082015290565b600080610d9e7f000000000000000000000000000000000000000000000000000000000000000062015180610eac565b9050804210610daf57600091505090565b610db94282610ef5565b91505090565b6020808252825182820181905260009190848201906040850190845b81811015610e005783516001600160a01b031683529284019291840191600101610ddb565b50909695505050505050565b600060208284031215610e1e57600080fd5b5035919050565b80356001600160a01b0381168114610e3c57600080fd5b919050565b600080600060608486031215610e5657600080fd5b610e5f84610e25565b95602085013595506040909401359392505050565b600060208284031215610e8657600080fd5b610e8f82610e25565b9392505050565b634e487b7160e01b600052601160045260246000fd5b80820180821115610ebf57610ebf610e96565b92915050565b8082028115828204841417610ebf57610ebf610e96565b600060018201610eee57610eee610e96565b5060010190565b81810381811115610ebf57610ebf610e9656fea26469706673582212208032e19dd7a77f55cda838596e5a3f8340eb732c631f7467acb484258e72c1a864736f6c63430008160033",
  "linkReferences": {},
  "deployedLinkReferences": {}
}