{
  "_format": "hh-sol-artifact-1",
  "contractName": "QuizHandler",
  "sourceName": "contracts/src/QuizHandler.sol",
  "abi": [
    {
      "inputs": [],
      "name": "InvalidInitialization",
      "type": "error"
    },
    {
      "inputs": [],
      "name": "NotInitializing",
      "type": "error"
    },
    {
      "anonymous": false,
      "inputs": [
        {
          "indexed": false,
          "internalType": "uint64",
          "name": "version",
          "type": "uint64"
        }
      ],
      "name": "Initialized",
      "type": "event"
    },
    {
      "anonymous": false,
      "inputs": [
        {
          "indexed": true,
          "internalType": "address",
          "name": "creator",
          "type": "address"
        },
        {
          "indexed": true,
          "internalType": "address",
          "name": "quizAddress",
          "type": "address"
        },
        {
          "indexed": false,
          "internalType": "uint256",
          "name": "correctReward",
          "type": "uint256"
        },
        {
          "indexed": false,
          "internalType": "uint256",
          "name": "incorrectReward",
          "type": "uint256"
        },
        {
          "indexed": false,
          "internalType": "uint256",
          "name": "fundingAmount",
          "type": "uint256"
        },
        {
          "indexed": false,
          "internalType": "uint256",
          "name": "deploymentFee",
          "type": "uint256"
        }
      ],
      "name": "QuizDeployed",
      "type": "event"
    },
    {
      "inputs": [],
      "name": "DEPLOYMENT_FEE",
      "outputs": [
        {
          "internalType": "uint256",
          "name": "",
          "type": "uint256"
        }
      ],
      "stateMutability": "view",
      "type": "function"
    },
    {
      "inputs": [],
      "name": "VERSION",
      "outputs": [
        {
          "internalType": "string",
          "name": "",
          "type": "string"
        }
      ],
      "stateMutability": "view",
      "type": "function"
    },
    {
      "inputs": [],
      "name": "authorizedBot",
      "outputs": [
        {
          "internalType": "address",
          "name": "",
          "type": "address"
        }
      ],
      "stateMutability": "view",
      "type": "function"
    },
    {
      "inputs": [
        {
          "internalType": "address",
          "name": "creator",
          "type": "address"
        },
        {
          "internalType": "bytes",
          "name": "params",
          "type": "bytes"
        }
      ],
      "name": "deployContract",
      "outputs": [
        {
          "internalType": "address",
          "name": "contractAddress",
          "type": "address"
        }
      ],
      "stateMutability": "payable",
      "type": "function"
    },
    {
      "inputs": [],
      "name": "getAccumulatedFees",
      "outputs": [
        {
          "internalType": "uint256",
          "name": "balance",
          "type": "uint256"
        }
      ],
      "stateMutability": "view",
      "type": "function"
    },
    {
      "inputs": [],
      "name": "getAuthorizedBot",
      "outputs": [
        {
          "internalType": "address",
          "name": "bot",
          "type": "address"
        }
      ],
      "stateMutability": "view",
      "type": "function"
    },
    {
      "inputs": [
        {
          "internalType": "bytes",
          "name": "params",
          "type": "bytes"
        }
      ],
      "name": "getDeploymentFee",
      "outputs": [
        {
          "internalType": "uint256",
          "name": "fee",
          "type": "uint256"
        }
      ],
      "stateMutability": "pure",
      "type": "function"
    },
    {
      "inputs": [],
      "name": "getHandlerInfo",
      "outputs": [
        {
          "internalType": "string",
          "name": "contractType",
          "type": "string"
        },
        {
          "internalType": "string",
          "name": "version",
          "type": "string"
        },
        {
          "internalType": "string",
          "name": "description",
          "type": "string"
        }
      ],
      "stateMutability": "pure",
      "type": "function"
    },
    {
      "inputs": [
        {
          "internalType": "address",
          "name": "_authorizedBot",
          "type": "address"
        }
      ],
      "name": "initialize",
      "outputs": [],
      "stateMutability": "nonpayable",
      "type": "function"
    },
    {
      "inputs": [],
      "name": "withdrawFees",
      "outputs": [],
      "stateMutability": "nonpayable",
      "type": "function"
    }
  ],
  "bytecode": "0x608060405234801561001057600080fd5b50611afc806100206000396000f3fe6080604052600436106100915760003560e01c80637ff08934116100595780637ff0893414610134578063a8f3225114610158578063c4d66de814610173578063d298dbe214610193578063ffa1ad74146101b357600080fd5b8063080885d6146100965780632673ce9f146100cd578063476343ee146100e057806352bcaa13146100f75780635df45a3714610117575b600080fd5b3480156100a257600080fd5b506000546001600160a01b03165b6040516001600160a01b0390911681526020015b60405180910390f35b6100b06100db36600461074c565b6101f1565b3480156100ec57600080fd5b506100f5610369565b005b34801561010357600080fd5b506000546100b0906001600160a01b031681565b34801561012357600080fd5b50475b6040519081526020016100c4565b34801561014057600080fd5b506101496104d3565b6040516100c4939291906107e5565b34801561016457600080fd5b5061012666038d7ea4c6800081565b34801561017f57600080fd5b506100f561018e366004610828565b61053e565b34801561019f57600080fd5b506101266101ae36600461084a565b6106a2565b3480156101bf57600080fd5b506101e4604051806040016040528060058152602001640312e302e360dc1b81525081565b6040516100c4919061088c565b600080806102018486018661089f565b9150915066038d7ea4c6800034101561027e5760405162461bcd60e51b815260206004820152603460248201527f5175697a48616e646c65723a20496e73756666696369656e74207061796d656e6044820152737420666f72206465706c6f796d656e742066656560601b60648201526084015b60405180910390fd5b600061029166038d7ea4c68000346108c1565b90506000818860008054906101000a90046001600160a01b031686866040516102b9906106da565b6001600160a01b039485168152939092166020840152604083015260608201526080016040518091039082f09050801580156102f9573d6000803e3d6000fd5b50604080518681526020810186905290810184905266038d7ea4c6800060608201529095508591506001600160a01b0380831691908a16907f3f26db352b9a3383677028a245639b0ff66037db60e00c22e867bbe449d527ca9060800160405180910390a3505050509392505050565b6000546001600160a01b031633146103de5760405162461bcd60e51b815260206004820152603260248201527f5175697a48616e646c65723a204f6e6c7920617574686f72697a656420626f746044820152712063616e207769746864726177206665657360701b6064820152608401610275565b478061042c5760405162461bcd60e51b815260206004820181905260248201527f5175697a48616e646c65723a204e6f206665657320746f2077697468647261776044820152606401610275565b604051600090339083908381818185875af1925050503d806000811461046e576040519150601f19603f3d011682016040523d82523d6000602084013e610473565b606091505b50509050806104cf5760405162461bcd60e51b815260206004820152602260248201527f5175697a48616e646c65723a20466565207769746864726177616c206661696c604482015261195960f21b6064820152608401610275565b5050565b6060806060604051806040016040528060058152602001640312e302e360dc1b8152506040518060400160405280600a8152602001695175697a457363726f7760b01b81525090604051806080016040528060588152602001611a6f60589139925092509250909192565b60006105486106b1565b805490915060ff600160401b820416159067ffffffffffffffff166000811580156105705750825b905060008267ffffffffffffffff16600114801561058d5750303b155b90508115801561059b575080155b156105b95760405163f92ee8a960e01b815260040160405180910390fd5b845467ffffffffffffffff1916600117855583156105e357845460ff60401b1916600160401b1785555b6001600160a01b0386166106395760405162461bcd60e51b815260206004820181905260248201527f5175697a48616e646c65723a20496e76616c696420626f7420616464726573736044820152606401610275565b600080546001600160a01b0319166001600160a01b038816179055831561069a57845460ff60401b19168555604051600181527fc7f505b2f371ae2175ee4913f4499e1f2633a7b5936321eed1cdaeb6115181d29060200160405180910390a15b505050505050565b66038d7ea4c680005b92915050565b6000807ff0c57e16840df040f15088dc2f81fe391c3923bec73e23a9662efc9c229c6a006106ab565b61118c806108e383390190565b80356001600160a01b03811681146106fe57600080fd5b919050565b60008083601f84011261071557600080fd5b50813567ffffffffffffffff81111561072d57600080fd5b60208301915083602082850101111561074557600080fd5b9250929050565b60008060006040848603121561076157600080fd5b61076a846106e7565b9250602084013567ffffffffffffffff81111561078657600080fd5b61079286828701610703565b9497909650939450505050565b6000815180845260005b818110156107c5576020818501810151868301820152016107a9565b506000602082860101526020601f19601f83011685010191505092915050565b6060815260006107f8606083018661079f565b828103602084015261080a818661079f565b9050828103604084015261081e818561079f565b9695505050505050565b60006020828403121561083a57600080fd5b610843826106e7565b9392505050565b6000806020838503121561085d57600080fd5b823567ffffffffffffffff81111561087457600080fd5b61088085828601610703565b90969095509350505050565b602081526000610843602083018461079f565b600080604083850312156108b257600080fd5b50508035926020909101359150565b818103818111156106ab57634e487b7160e01b600052601160045260246000fdfe61014060405260405161118c38038061118c83398101604081905261002391610176565b6001600160a01b03841661008a5760405162461bcd60e51b815260206004820152602360248201527f5175697a457363726f773a20496e76616c69642063726561746f72206164647260448201526265737360e81b60648201526084015b60405180910390fd5b6001600160a01b0383166100e05760405162461bcd60e51b815260206004820152601f60248201527f5175697a457363726f773a20496e76616c696420626f742061646472657373006044820152606401610081565b6001600160a01b03848116608081905290841660a08190524260c0523460e0819052610100859052610120849052604080519182526020820186905281018490529091907f7827af77e7b6672abd014a70dd2023f4fe7c0e5f4c029a83295cbf193a8f8ea09060600160405180910390a3505050506101b9565b80516001600160a01b038116811461017157600080fd5b919050565b6000806000806080858703121561018c57600080fd5b6101958561015a565b93506101a36020860161015a565b6040860151606090960151949790965092505050565b60805160a05160c05160e0516101005161012051610f3e61024e60003960008181610233015261070a01526000818161025a01526107340152600061017a0152600081816102f10152818161053d015281816109ca01528181610ca10152610d760152600081816101e6015281816104540152610a0601526000818161013601528181610b040152610bdb0152610f3e6000f3fe608060405234801561001057600080fd5b506004361061012c5760003560e01c80636381eea6116100ad578063d235659311610071578063d2356593146102e3578063d8270dce146102ec578063dc1892e614610313578063e41c3ce41461036d578063efb98bcf146103b557600080fd5b80636381eea61461022e5780637b42720414610255578063a26dbf261461027c578063a4fd6f5614610285578063c7f43d58146102a257600080fd5b80632820aece116100f45780632820aece146101ce57806352bcaa13146101e157806355acbb781461020857806355e08c2b146102115780635b0700a81461022657600080fd5b806302d05d3f1461013157806304a79c971461017557806312065fe0146101aa5780631357e1dc146101b0578063195ec9ee146101b9575b600080fd5b6101587f000000000000000000000000000000000000000000000000000000000000000081565b6040516001600160a01b0390911681526020015b60405180910390f35b61019c7f000000000000000000000000000000000000000000000000000000000000000081565b60405190815260200161016c565b4761019c565b61019c60005481565b6101c16103bd565b60405161016c9190610dbf565b6101586101dc366004610e0c565b61041f565b6101587f000000000000000000000000000000000000000000000000000000000000000081565b61019c60045481565b61022461021f366004610e41565b610449565b005b6102246109c5565b61019c7f000000000000000000000000000000000000000000000000000000000000000081565b61019c7f000000000000000000000000000000000000000000000000000000000000000081565b61019c60025481565b6001546102929060ff1681565b604051901515815260200161016c565b6102aa610c87565b6040805197885260208801969096529486019390935260608501919091526080840152151560a0830152151560c082015260e00161016c565b61019c60035481565b61019c7f000000000000000000000000000000000000000000000000000000000000000081565b61034b610321366004610e74565b60066020526000908152604090208054600182015460028301546003909301549192909160ff1684565b604080519485526020850193909352918301521515606082015260800161016c565b61038061037b366004610e74565b610cee565b60405161016c919081518152602080830151908201526040808301519082015260609182015115159181019190915260800190565b61019c610d6e565b6060600580548060200260200160405190810160405280929190818152602001828054801561041557602002820191906000526020600020905b81546001600160a01b031681526001909101906020018083116103f7575b5050505050905090565b6005818154811061042f57600080fd5b6000918252602090912001546001600160a01b0316905081565b336001600160a01b037f000000000000000000000000000000000000000000000000000000000000000016146104e55760405162461bcd60e51b815260206004820152603660248201527f5175697a457363726f773a204f6e6c7920617574686f72697a656420626f742060448201527531b0b71031b0b636103a3434b990333ab731ba34b7b760511b60648201526084015b60405180910390fd5b60015460ff16156105385760405162461bcd60e51b815260206004820152601a60248201527f5175697a457363726f773a205175697a2068617320656e64656400000000000060448201526064016104dc565b6105657f000000000000000000000000000000000000000000000000000000000000000062015180610eac565b42106105b35760405162461bcd60e51b815260206004820152601c60248201527f5175697a457363726f773a205175697a2068617320657870697265640000000060448201526064016104dc565b6001600160a01b0383166106195760405162461bcd60e51b815260206004820152602760248201527f5175697a457363726f773a20496e76616c6964207061727469636970616e74206044820152666164647265737360c81b60648201526084016104dc565b6001600160a01b03831660009081526006602052604090206003015460ff16156106965760405162461bcd60e51b815260206004820152602860248201527f5175697a457363726f773a205061727469636970616e7420616c7265616479206044820152671c9958dbdc99195960c21b60648201526084016104dc565b60008211806106a55750600081115b6107035760405162461bcd60e51b815260206004820152602960248201527f5175697a457363726f773a204d7573742068617665206174206c65617374206f60448201526837329030b739bbb2b960b91b60648201526084016104dc565b600061072f7f000000000000000000000000000000000000000000000000000000000000000083610ec5565b6107597f000000000000000000000000000000000000000000000000000000000000000085610ec5565b6107639190610eac565b9050478111156107c75760405162461bcd60e51b815260206004820152602960248201527f5175697a457363726f773a20496e73756666696369656e742066756e647320666044820152681bdc881c185e5bdd5d60ba1b60648201526084016104dc565b6040805160808101825284815260208082018581528284018581526001606085018181526001600160a01b038b166000818152600690965296852095518655925185820155905160028086019190915591516003909401805460ff19169415159490941790935560058054938401815582527f036b6384b5eca791c62761152d0c79bb0604c104a5fb6f4eb0703f3154bb3db090920180546001600160a01b03191690931790925580549161087b83610edc565b919050555082600360008282546108929190610eac565b9250508190555081600460008282546108ab9190610eac565b92505081905550806000808282546108c39190610eac565b90915550508015610973576000846001600160a01b03168260405160006040518083038185875af1925050503d806000811461091b576040519150601f19603f3d011682016040523d82523d6000602084013e610920565b606091505b50509050806109715760405162461bcd60e51b815260206004820152601a60248201527f5175697a457363726f773a205061796d656e74206661696c656400000000000060448201526064016104dc565b505b60408051848152602081018490529081018290526001600160a01b038516907f505ea5f95ab2f1563b21d724db1b6c59f3e8b8ca0169dd0d2dcd6c2b45371ecf9060600160405180910390a250505050565b6109f27f000000000000000000000000000000000000000000000000000000000000000062015180610eac565b42101580610a285750336001600160a01b037f000000000000000000000000000000000000000000000000000000000000000016145b610a9a5760405162461bcd60e51b815260206004820152603a60248201527f5175697a457363726f773a205175697a206e6f74206578706972656420616e6460448201527f2063616c6c6572206e6f7420617574686f72697a656420626f7400000000000060648201526084016104dc565b60015460ff1615610aed5760405162461bcd60e51b815260206004820152601e60248201527f5175697a457363726f773a205175697a20616c726561647920656e646564000060448201526064016104dc565b6001805460ff191681179055478015610c3e5760007f00000000000000000000000000000000000000000000000000000000000000006001600160a01b03168260405160006040518083038185875af1925050503d8060008114610b6d576040519150601f19603f3d011682016040523d82523d6000602084013e610b72565b606091505b5050905080610bd95760405162461bcd60e51b815260206004820152602d60248201527f5175697a457363726f773a204661696c656420746f2072657475726e2066756e60448201526c3239903a379031b932b0ba37b960991b60648201526084016104dc565b7f00000000000000000000000000000000000000000000000000000000000000006001600160a01b03167fa040ca073376d39884e5322e13f5e38fe9db9b46f46d474e7cfcfbdf2d617a9a83604051610c3491815260200190565b60405180910390a2505b7fa079fdba1bc1af068f704947986666feb435d952a5db81d4109e9e7d070efbdb600254600054604051610c7c929190918252602082015260400190565b60405180910390a150565b6000806000806000806000600254600354600454600054477f000000000000000000000000000000000000000000000000000000000000000062015180610cce9190610eac565b600154959d949c50929a509098509650421015945060ff90911692509050565b610d1b60405180608001604052806000815260200160008152602001600081526020016000151581525090565b506001600160a01b031660009081526006602090815260409182902082516080810184528154815260018201549281019290925260028101549282019290925260039091015460ff161515606082015290565b600080610d9e7f000000000000000000000000000000000000000000000000000000000000000062015180610eac565b9050804210610daf57600091505090565b610db94282610ef5565b91505090565b6020808252825182820181905260009190848201906040850190845b81811015610e005783516001600160a01b031683529284019291840191600101610ddb565b50909695505050505050565b600060208284031215610e1e57600080fd5b5035919050565b80356001600160a01b0381168114610e3c57600080fd5b919050565b600080600060608486031215610e5657600080fd5b610e5f84610e25565b95602085013595506040909401359392505050565b600060208284031215610e8657600080fd5b610e8f82610e25565b9392505050565b634e487b7160e01b600052601160045260246000fd5b80820180821115610ebf57610ebf610e96565b92915050565b8082028115828204841417610ebf57610ebf610e96565b600060018201610eee57610eee610e96565b5060010190565b81810381811115610ebf57610ebf610e9656fea26469706673582212208032e19dd7a77f55cda838596e5a3f8340eb732c631f7467acb484258e72c1a864736f6c634300081600334465706c6f7973205175697a457363726f7720636f6e74726163747320666f7220446973636f7264207175697a2067616d6573207769746820626f742d636f6e74726f6c6c656420726573756c74207265636f7264696e67a26469706673582212200a12136234f1c603a695343f4330e5584250504ad7b5d709994c874ba42105ff64736f6c63430008160033",
  "linkReferences": {},
  "deployedLinkReferences": {}
}